{
  "transactions": [
    {
      "hash": null,
      "transactionType": "CALL",
      "contractName": null,
      "contractAddress": "0xa0a27a0fd9cc05fa45caaea35e22f4ad2a65c9b6",
      "function": "transferOwnership(address)",
      "arguments": [
        "0x15c1eAE4187991e36373f9b6D95A48CD9f0F7eC3"
      ],
      "transaction": {
        "from": "0x8601a07385fbd135627373e9938d6b0fd92aeee1",
        "to": "0xa0a27a0fd9cc05fa45caaea35e22f4ad2a65c9b6",
        "gas": "0xa387",
        "value": "0x0",
        "input": "0xf2fde38b00000000000000000000000015c1eae4187991e36373f9b6d95a48cd9f0f7ec3",
        "nonce": "0x52",
        "chainId": "0xa86a"
      },
      "additionalContracts": [],
      "isFixedGasLimit": false
    },
    {
      "hash": null,
      "transactionType": "CALL",
      "contractName": null,
      "contractAddress": "0xae1649d7ecc9e50d9b406764d08b7dd498223888",
      "function": "transferOwnership(address)",
      "arguments": [
        "0x15c1eAE4187991e36373f9b6D95A48CD9f0F7eC3"
      ],
      "transaction": {
        "from": "0x8601a07385fbd135627373e9938d6b0fd92aeee1",
        "to": "0xae1649d7ecc9e50d9b406764d08b7dd498223888",
        "gas": "0xa387",
        "value": "0x0",
        "input": "0xf2fde38b00000000000000000000000015c1eae4187991e36373f9b6d95a48cd9f0f7ec3",
        "nonce": "0x53",
        "chainId": "0xa86a"
      },
      "additionalContracts": [],
      "isFixedGasLimit": false
    },
    {
      "hash": null,
      "transactionType": "CALL",
      "contractName": null,
      "contractAddress": "0x54afd5d64a6e222364bddea2cde959ae02854ecd",
      "function": "transferOwnership(address)",
      "arguments": [
        "0x15c1eAE4187991e36373f9b6D95A48CD9f0F7eC3"
      ],
      "transaction": {
        "from": "0x8601a07385fbd135627373e9938d6b0fd92aeee1",
        "to": "0x54afd5d64a6e222364bddea2cde959ae02854ecd",
        "gas": "0xa387",
        "value": "0x0",
        "input": "0xf2fde38b00000000000000000000000015c1eae4187991e36373f9b6d95a48cd9f0f7ec3",
        "nonce": "0x54",
        "chainId": "0xa86a"
      },
      "additionalContracts": [],
      "isFixedGasLimit": false
    },
    {
      "hash": null,
      "transactionType": "CALL",
      "contractName": null,
      "contractAddress": "0x337488a635ce1fb6033235d765bf4f037468fda0",
      "function": "transferOwnership(address)",
      "arguments": [
        "0x15c1eAE4187991e36373f9b6D95A48CD9f0F7eC3"
      ],
      "transaction": {
        "from": "0x8601a07385fbd135627373e9938d6b0fd92aeee1",
        "to": "0x337488a635ce1fb6033235d765bf4f037468fda0",
        "gas": "0xa387",
        "value": "0x0",
        "input": "0xf2fde38b00000000000000000000000015c1eae4187991e36373f9b6d95a48cd9f0f7ec3",
        "nonce": "0x55",
        "chainId": "0xa86a"
      },
      "additionalContracts": [],
      "isFixedGasLimit": false
    },
    {
      "hash": null,
      "transactionType": "CALL",
      "contractName": null,
      "contractAddress": "0xda734c04d4bb7f568ea79ac2816716c25dd4d85a",
      "function": "transferOwnership(address)",
      "arguments": [
        "0x15c1eAE4187991e36373f9b6D95A48CD9f0F7eC3"
      ],
      "transaction": {
        "from": "0x8601a07385fbd135627373e9938d6b0fd92aeee1",
        "to": "0xda734c04d4bb7f568ea79ac2816716c25dd4d85a",
        "gas": "0xa387",
        "value": "0x0",
        "input": "0xf2fde38b00000000000000000000000015c1eae4187991e36373f9b6d95a48cd9f0f7ec3",
        "nonce": "0x56",
        "chainId": "0xa86a"
      },
      "additionalContracts": [],
      "isFixedGasLimit": false
    },
    {
      "hash": null,
      "transactionType": "CALL",
      "contractName": null,
      "contractAddress": "0x0e6f802b952ebd1a62cbbb843ca0b6e4d7c7fc55",
      "function": "transferOwnership(address)",
      "arguments": [
        "0x15c1eAE4187991e36373f9b6D95A48CD9f0F7eC3"
      ],
      "transaction": {
        "from": "0x8601a07385fbd135627373e9938d6b0fd92aeee1",
        "to": "0x0e6f802b952ebd1a62cbbb843ca0b6e4d7c7fc55",
        "gas": "0xa387",
        "value": "0x0",
        "input": "0xf2fde38b00000000000000000000000015c1eae4187991e36373f9b6d95a48cd9f0f7ec3",
        "nonce": "0x57",
        "chainId": "0xa86a"
      },
      "additionalContracts": [],
      "isFixedGasLimit": false
    },
    {
      "hash": null,
      "transactionType": "CALL",
      "contractName": null,
      "contractAddress": "0x0ba556bf0ad91aa4730cf77a235ca1c3fa4e9aca",
      "function": "transferOwnership(address)",
      "arguments": [
        "0x15c1eAE4187991e36373f9b6D95A48CD9f0F7eC3"
      ],
      "transaction": {
        "from": "0x8601a07385fbd135627373e9938d6b0fd92aeee1",
        "to": "0x0ba556bf0ad91aa4730cf77a235ca1c3fa4e9aca",
        "gas": "0xa387",
        "value": "0x0",
        "input": "0xf2fde38b00000000000000000000000015c1eae4187991e36373f9b6d95a48cd9f0f7ec3",
        "nonce": "0x58",
        "chainId": "0xa86a"
      },
      "additionalContracts": [],
      "isFixedGasLimit": false
    },
    {
      "hash": null,
      "transactionType": "CALL",
      "contractName": null,
      "contractAddress": "0xe0c7da43fb6c0efca317f9c4342ad9b3d4e37395",
      "function": "transferOwnership(address)",
      "arguments": [
        "0x15c1eAE4187991e36373f9b6D95A48CD9f0F7eC3"
      ],
      "transaction": {
        "from": "0x8601a07385fbd135627373e9938d6b0fd92aeee1",
        "to": "0xe0c7da43fb6c0efca317f9c4342ad9b3d4e37395",
        "gas": "0xa387",
        "value": "0x0",
        "input": "0xf2fde38b00000000000000000000000015c1eae4187991e36373f9b6d95a48cd9f0f7ec3",
        "nonce": "0x59",
        "chainId": "0xa86a"
      },
      "additionalContracts": [],
      "isFixedGasLimit": false
    },
    {
      "hash": null,
      "transactionType": "CALL",
      "contractName": null,
      "contractAddress": "0x641d0d7297d694e15e4f9e7415f1c75fa84f2e8b",
      "function": "transferOwnership(address)",
      "arguments": [
        "0x15c1eAE4187991e36373f9b6D95A48CD9f0F7eC3"
      ],
      "transaction": {
        "from": "0x8601a07385fbd135627373e9938d6b0fd92aeee1",
        "to": "0x641d0d7297d694e15e4f9e7415f1c75fa84f2e8b",
        "gas": "0xa387",
        "value": "0x0",
        "input": "0xf2fde38b00000000000000000000000015c1eae4187991e36373f9b6d95a48cd9f0f7ec3",
        "nonce": "0x5a",
        "chainId": "0xa86a"
      },
      "additionalContracts": [],
      "isFixedGasLimit": false
    },
    {
      "hash": null,
      "transactionType": "CALL",
      "contractName": null,
      "contractAddress": "0x8e74823f08ae984948fe2312bdf2f1919fe2749c",
      "function": "transferOwnership(address)",
      "arguments": [
        "0x15c1eAE4187991e36373f9b6D95A48CD9f0F7eC3"
      ],
      "transaction": {
        "from": "0x8601a07385fbd135627373e9938d6b0fd92aeee1",
        "to": "0x8e74823f08ae984948fe2312bdf2f1919fe2749c",
        "gas": "0xa387",
        "value": "0x0",
        "input": "0xf2fde38b00000000000000000000000015c1eae4187991e36373f9b6d95a48cd9f0f7ec3",
        "nonce": "0x5b",
        "chainId": "0xa86a"
      },
      "additionalContracts": [],
      "isFixedGasLimit": false
    },
    {
      "hash": null,
      "transactionType": "CALL",
      "contractName": null,
      "contractAddress": "0x2aa34ed91f4afa13110feb3a9192a4e8e8c2c3b5",
      "function": "transferOwnership(address)",
      "arguments": [
        "0x15c1eAE4187991e36373f9b6D95A48CD9f0F7eC3"
      ],
      "transaction": {
        "from": "0x8601a07385fbd135627373e9938d6b0fd92aeee1",
        "to": "0x2aa34ed91f4afa13110feb3a9192a4e8e8c2c3b5",
        "gas": "0xa387",
        "value": "0x0",
        "input": "0xf2fde38b00000000000000000000000015c1eae4187991e36373f9b6d95a48cd9f0f7ec3",
        "nonce": "0x5c",
        "chainId": "0xa86a"
      },
      "additionalContracts": [],
      "isFixedGasLimit": false
    },
    {
      "hash": null,
      "transactionType": "CALL",
      "contractName": null,
      "contractAddress": "0x8fd891b12ab5a9abd8be3cf4aac9425dcf53d73c",
      "function": "transferOwnership(address)",
      "arguments": [
        "0x15c1eAE4187991e36373f9b6D95A48CD9f0F7eC3"
      ],
      "transaction": {
        "from": "0x8601a07385fbd135627373e9938d6b0fd92aeee1",
        "to": "0x8fd891b12ab5a9abd8be3cf4aac9425dcf53d73c",
        "gas": "0xa387",
        "value": "0x0",
        "input": "0xf2fde38b00000000000000000000000015c1eae4187991e36373f9b6d95a48cd9f0f7ec3",
        "nonce": "0x5d",
        "chainId": "0xa86a"
      },
      "additionalContracts": [],
      "isFixedGasLimit": false
    }
  ],
  "receipts": [],
  "libraries": [],
  "pending": [],
  "returns": {},
  "timestamp": 1744376251,
  "chain": 43114,
  "commit": "3f2c649"
}