{
  "transactions": [
    {
      "hash": null,
      "transactionType": "CALL",
      "contractName": null,
      "contractAddress": "0xf220e1c4567daf66932e08dd72eb0c1a57422fec",
      "function": "transferOwnership(address)",
      "arguments": [
        "0x15c1eAE4187991e36373f9b6D95A48CD9f0F7eC3"
      ],
      "transaction": {
        "from": "0x8affbdec195700db11465733146c708af538c0ed",
        "to": "0xf220e1c4567daf66932e08dd72eb0c1a57422fec",
        "gas": "0xa387",
        "value": "0x0",
        "input": "0xf2fde38b00000000000000000000000015c1eae4187991e36373f9b6d95a48cd9f0f7ec3",
        "nonce": "0x99",
        "chainId": "0x14a34"
      },
      "additionalContracts": [],
      "isFixedGasLimit": false
    },
    {
      "hash": null,
      "transactionType": "CALL",
      "contractName": null,
      "contractAddress": "0x0cbb247f8a73046d6d4b6ca7e6904525509dc767",
      "function": "transferOwnership(address)",
      "arguments": [
        "0x15c1eAE4187991e36373f9b6D95A48CD9f0F7eC3"
      ],
      "transaction": {
        "from": "0x8affbdec195700db11465733146c708af538c0ed",
        "to": "0x0cbb247f8a73046d6d4b6ca7e6904525509dc767",
        "gas": "0xa387",
        "value": "0x0",
        "input": "0xf2fde38b00000000000000000000000015c1eae4187991e36373f9b6d95a48cd9f0f7ec3",
        "nonce": "0x9a",
        "chainId": "0x14a34"
      },
      "additionalContracts": [],
      "isFixedGasLimit": false
    },
    {
      "hash": null,
      "transactionType": "CALL",
      "contractName": null,
      "contractAddress": "0x9ba3e9554aaf1d1f89d7e2f827baff8dd889b30d",
      "function": "transferOwnership(address)",
      "arguments": [
        "0x15c1eAE4187991e36373f9b6D95A48CD9f0F7eC3"
      ],
      "transaction": {
        "from": "0x8affbdec195700db11465733146c708af538c0ed",
        "to": "0x9ba3e9554aaf1d1f89d7e2f827baff8dd889b30d",
        "gas": "0xa387",
        "value": "0x0",
        "input": "0xf2fde38b00000000000000000000000015c1eae4187991e36373f9b6d95a48cd9f0f7ec3",
        "nonce": "0x9b",
        "chainId": "0x14a34"
      },
      "additionalContracts": [],
      "isFixedGasLimit": false
    },
    {
      "hash": null,
      "transactionType": "CALL",
      "contractName": null,
      "contractAddress": "0x2cdb24cec835e5cd6cb2d32567d015b603391dc8",
      "function": "transferOwnership(address)",
      "arguments": [
        "0x15c1eAE4187991e36373f9b6D95A48CD9f0F7eC3"
      ],
      "transaction": {
        "from": "0x8affbdec195700db11465733146c708af538c0ed",
        "to": "0x2cdb24cec835e5cd6cb2d32567d015b603391dc8",
        "gas": "0xa387",
        "value": "0x0",
        "input": "0xf2fde38b00000000000000000000000015c1eae4187991e36373f9b6d95a48cd9f0f7ec3",
        "nonce": "0x9c",
        "chainId": "0x14a34"
      },
      "additionalContracts": [],
      "isFixedGasLimit": false
    },
    {
      "hash": null,
      "transactionType": "CALL",
      "contractName": null,
      "contractAddress": "0xf25813c0585d8da8c46257d32f62a3ea5c7d5db2",
      "function": "transferOwnership(address)",
      "arguments": [
        "0x15c1eAE4187991e36373f9b6D95A48CD9f0F7eC3"
      ],
      "transaction": {
        "from": "0x8affbdec195700db11465733146c708af538c0ed",
        "to": "0xf25813c0585d8da8c46257d32f62a3ea5c7d5db2",
        "gas": "0xa387",
        "value": "0x0",
        "input": "0xf2fde38b00000000000000000000000015c1eae4187991e36373f9b6d95a48cd9f0f7ec3",
        "nonce": "0x9d",
        "chainId": "0x14a34"
      },
      "additionalContracts": [],
      "isFixedGasLimit": false
    },
    {
      "hash": null,
      "transactionType": "CALL",
      "contractName": null,
      "contractAddress": "0xba8a586e341ff8655f4cfebf8dd2ed276ef27f12",
      "function": "transferOwnership(address)",
      "arguments": [
        "0x15c1eAE4187991e36373f9b6D95A48CD9f0F7eC3"
      ],
      "transaction": {
        "from": "0x8affbdec195700db11465733146c708af538c0ed",
        "to": "0xba8a586e341ff8655f4cfebf8dd2ed276ef27f12",
        "gas": "0xa387",
        "value": "0x0",
        "input": "0xf2fde38b00000000000000000000000015c1eae4187991e36373f9b6d95a48cd9f0f7ec3",
        "nonce": "0x9e",
        "chainId": "0x14a34"
      },
      "additionalContracts": [],
      "isFixedGasLimit": false
    },
    {
      "hash": null,
      "transactionType": "CALL",
      "contractName": null,
      "contractAddress": "0xda81b8f184134a4b89b49085195d996180a691a7",
      "function": "transferOwnership(address)",
      "arguments": [
        "0x15c1eAE4187991e36373f9b6D95A48CD9f0F7eC3"
      ],
      "transaction": {
        "from": "0x8affbdec195700db11465733146c708af538c0ed",
        "to": "0xda81b8f184134a4b89b49085195d996180a691a7",
        "gas": "0xa387",
        "value": "0x0",
        "input": "0xf2fde38b00000000000000000000000015c1eae4187991e36373f9b6d95a48cd9f0f7ec3",
        "nonce": "0x9f",
        "chainId": "0x14a34"
      },
      "additionalContracts": [],
      "isFixedGasLimit": false
    },
    {
      "hash": null,
      "transactionType": "CALL",
      "contractName": null,
      "contractAddress": "0xf6fc976ca6b8362d06fd1068debf0b468583e48a",
      "function": "transferOwnership(address)",
      "arguments": [
        "0x15c1eAE4187991e36373f9b6D95A48CD9f0F7eC3"
      ],
      "transaction": {
        "from": "0x8affbdec195700db11465733146c708af538c0ed",
        "to": "0xf6fc976ca6b8362d06fd1068debf0b468583e48a",
        "gas": "0xa387",
        "value": "0x0",
        "input": "0xf2fde38b00000000000000000000000015c1eae4187991e36373f9b6d95a48cd9f0f7ec3",
        "nonce": "0xa0",
        "chainId": "0x14a34"
      },
      "additionalContracts": [],
      "isFixedGasLimit": false
    },
    {
      "hash": null,
      "transactionType": "CALL",
      "contractName": null,
      "contractAddress": "0x817c22111ebf4c1316a10bb5b8865b9234c50803",
      "function": "transferOwnership(address)",
      "arguments": [
        "0x15c1eAE4187991e36373f9b6D95A48CD9f0F7eC3"
      ],
      "transaction": {
        "from": "0x8affbdec195700db11465733146c708af538c0ed",
        "to": "0x817c22111ebf4c1316a10bb5b8865b9234c50803",
        "gas": "0xa387",
        "value": "0x0",
        "input": "0xf2fde38b00000000000000000000000015c1eae4187991e36373f9b6d95a48cd9f0f7ec3",
        "nonce": "0xa1",
        "chainId": "0x14a34"
      },
      "additionalContracts": [],
      "isFixedGasLimit": false
    },
    {
      "hash": null,
      "transactionType": "CALL",
      "contractName": null,
      "contractAddress": "0x634706d7a1ff172a52e936efdc4135510ea78683",
      "function": "transferOwnership(address)",
      "arguments": [
        "0x15c1eAE4187991e36373f9b6D95A48CD9f0F7eC3"
      ],
      "transaction": {
        "from": "0x8affbdec195700db11465733146c708af538c0ed",
        "to": "0x634706d7a1ff172a52e936efdc4135510ea78683",
        "gas": "0xa387",
        "value": "0x0",
        "input": "0xf2fde38b00000000000000000000000015c1eae4187991e36373f9b6d95a48cd9f0f7ec3",
        "nonce": "0xa2",
        "chainId": "0x14a34"
      },
      "additionalContracts": [],
      "isFixedGasLimit": false
    },
    {
      "hash": null,
      "transactionType": "CALL",
      "contractName": null,
      "contractAddress": "0x55fbf0435fe444c9281a3cce20e35c80e8e01111",
      "function": "transferOwnership(address)",
      "arguments": [
        "0x15c1eAE4187991e36373f9b6D95A48CD9f0F7eC3"
      ],
      "transaction": {
        "from": "0x8affbdec195700db11465733146c708af538c0ed",
        "to": "0x55fbf0435fe444c9281a3cce20e35c80e8e01111",
        "gas": "0xa387",
        "value": "0x0",
        "input": "0xf2fde38b00000000000000000000000015c1eae4187991e36373f9b6d95a48cd9f0f7ec3",
        "nonce": "0xa3",
        "chainId": "0x14a34"
      },
      "additionalContracts": [],
      "isFixedGasLimit": false
    },
    {
      "hash": null,
      "transactionType": "CALL",
      "contractName": null,
      "contractAddress": "0xc9d6be6b4261d2aea66e9c3f15669e68246b16f0",
      "function": "transferOwnership(address)",
      "arguments": [
        "0x15c1eAE4187991e36373f9b6D95A48CD9f0F7eC3"
      ],
      "transaction": {
        "from": "0x8affbdec195700db11465733146c708af538c0ed",
        "to": "0xc9d6be6b4261d2aea66e9c3f15669e68246b16f0",
        "gas": "0xa387",
        "value": "0x0",
        "input": "0xf2fde38b00000000000000000000000015c1eae4187991e36373f9b6d95a48cd9f0f7ec3",
        "nonce": "0xa4",
        "chainId": "0x14a34"
      },
      "additionalContracts": [],
      "isFixedGasLimit": false
    },
    {
      "hash": null,
      "transactionType": "CALL",
      "contractName": null,
      "contractAddress": "0xbbe290da118ac3be60eb932a2c888306dc0b3df7",
      "function": "transferOwnership(address)",
      "arguments": [
        "0x15c1eAE4187991e36373f9b6D95A48CD9f0F7eC3"
      ],
      "transaction": {
        "from": "0x8affbdec195700db11465733146c708af538c0ed",
        "to": "0xbbe290da118ac3be60eb932a2c888306dc0b3df7",
        "gas": "0xa387",
        "value": "0x0",
        "input": "0xf2fde38b00000000000000000000000015c1eae4187991e36373f9b6d95a48cd9f0f7ec3",
        "nonce": "0xa5",
        "chainId": "0x14a34"
      },
      "additionalContracts": [],
      "isFixedGasLimit": false
    },
    {
      "hash": null,
      "transactionType": "CALL",
      "contractName": null,
      "contractAddress": "0xcb962871c807fc0777881481436c2082046110f9",
      "function": "transferOwnership(address)",
      "arguments": [
        "0x15c1eAE4187991e36373f9b6D95A48CD9f0F7eC3"
      ],
      "transaction": {
        "from": "0x8affbdec195700db11465733146c708af538c0ed",
        "to": "0xcb962871c807fc0777881481436c2082046110f9",
        "gas": "0xa387",
        "value": "0x0",
        "input": "0xf2fde38b00000000000000000000000015c1eae4187991e36373f9b6d95a48cd9f0f7ec3",
        "nonce": "0xa6",
        "chainId": "0x14a34"
      },
      "additionalContracts": [],
      "isFixedGasLimit": false
    },
    {
      "hash": null,
      "transactionType": "CALL",
      "contractName": null,
      "contractAddress": "0x747279efe142bba989ff3c9ef2d77b792c09312a",
      "function": "transferOwnership(address)",
      "arguments": [
        "0x15c1eAE4187991e36373f9b6D95A48CD9f0F7eC3"
      ],
      "transaction": {
        "from": "0x8affbdec195700db11465733146c708af538c0ed",
        "to": "0x747279efe142bba989ff3c9ef2d77b792c09312a",
        "gas": "0xa387",
        "value": "0x0",
        "input": "0xf2fde38b00000000000000000000000015c1eae4187991e36373f9b6d95a48cd9f0f7ec3",
        "nonce": "0xa7",
        "chainId": "0x14a34"
      },
      "additionalContracts": [],
      "isFixedGasLimit": false
    },
    {
      "hash": null,
      "transactionType": "CALL",
      "contractName": null,
      "contractAddress": "0x7d51e5923c215ccd134d5004f89b1e8d07f3fe80",
      "function": "transferOwnership(address)",
      "arguments": [
        "0x15c1eAE4187991e36373f9b6D95A48CD9f0F7eC3"
      ],
      "transaction": {
        "from": "0x8affbdec195700db11465733146c708af538c0ed",
        "to": "0x7d51e5923c215ccd134d5004f89b1e8d07f3fe80",
        "gas": "0xa387",
        "value": "0x0",
        "input": "0xf2fde38b00000000000000000000000015c1eae4187991e36373f9b6d95a48cd9f0f7ec3",
        "nonce": "0xa8",
        "chainId": "0x14a34"
      },
      "additionalContracts": [],
      "isFixedGasLimit": false
    },
    {
      "hash": null,
      "transactionType": "CALL",
      "contractName": null,
      "contractAddress": "0x1ddaf9864882d7758dc84f733bf01cbda6e1544e",
      "function": "transferOwnership(address)",
      "arguments": [
        "0x15c1eAE4187991e36373f9b6D95A48CD9f0F7eC3"
      ],
      "transaction": {
        "from": "0x8affbdec195700db11465733146c708af538c0ed",
        "to": "0x1ddaf9864882d7758dc84f733bf01cbda6e1544e",
        "gas": "0xa387",
        "value": "0x0",
        "input": "0xf2fde38b00000000000000000000000015c1eae4187991e36373f9b6d95a48cd9f0f7ec3",
        "nonce": "0xa9",
        "chainId": "0x14a34"
      },
      "additionalContracts": [],
      "isFixedGasLimit": false
    },
    {
      "hash": null,
      "transactionType": "CALL",
      "contractName": null,
      "contractAddress": "0x760a2ac9b67fe57cf00f0063e1ad9158b237bcb4",
      "function": "transferOwnership(address)",
      "arguments": [
        "0x15c1eAE4187991e36373f9b6D95A48CD9f0F7eC3"
      ],
      "transaction": {
        "from": "0x8affbdec195700db11465733146c708af538c0ed",
        "to": "0x760a2ac9b67fe57cf00f0063e1ad9158b237bcb4",
        "gas": "0xa387",
        "value": "0x0",
        "input": "0xf2fde38b00000000000000000000000015c1eae4187991e36373f9b6d95a48cd9f0f7ec3",
        "nonce": "0xaa",
        "chainId": "0x14a34"
      },
      "additionalContracts": [],
      "isFixedGasLimit": false
    },
    {
      "hash": null,
      "transactionType": "CALL",
      "contractName": null,
      "contractAddress": "0x4a713222a1f09d61974786b714bc6e13813d4169",
      "function": "transferOwnership(address)",
      "arguments": [
        "0x15c1eAE4187991e36373f9b6D95A48CD9f0F7eC3"
      ],
      "transaction": {
        "from": "0x8affbdec195700db11465733146c708af538c0ed",
        "to": "0x4a713222a1f09d61974786b714bc6e13813d4169",
        "gas": "0xa387",
        "value": "0x0",
        "input": "0xf2fde38b00000000000000000000000015c1eae4187991e36373f9b6d95a48cd9f0f7ec3",
        "nonce": "0xab",
        "chainId": "0x14a34"
      },
      "additionalContracts": [],
      "isFixedGasLimit": false
    },
    {
      "hash": null,
      "transactionType": "CALL",
      "contractName": null,
      "contractAddress": "0x541228a831f89a27f48727231a8c629f9b62cf45",
      "function": "transferOwnership(address)",
      "arguments": [
        "0x15c1eAE4187991e36373f9b6D95A48CD9f0F7eC3"
      ],
      "transaction": {
        "from": "0x8affbdec195700db11465733146c708af538c0ed",
        "to": "0x541228a831f89a27f48727231a8c629f9b62cf45",
        "gas": "0xa387",
        "value": "0x0",
        "input": "0xf2fde38b00000000000000000000000015c1eae4187991e36373f9b6d95a48cd9f0f7ec3",
        "nonce": "0xac",
        "chainId": "0x14a34"
      },
      "additionalContracts": [],
      "isFixedGasLimit": false
    },
    {
      "hash": null,
      "transactionType": "CALL",
      "contractName": null,
      "contractAddress": "0xea75da676f9440eaff710d45a1c9f9eaa18ae2ee",
      "function": "transferOwnership(address)",
      "arguments": [
        "0x15c1eAE4187991e36373f9b6D95A48CD9f0F7eC3"
      ],
      "transaction": {
        "from": "0x8affbdec195700db11465733146c708af538c0ed",
        "to": "0xea75da676f9440eaff710d45a1c9f9eaa18ae2ee",
        "gas": "0xa387",
        "value": "0x0",
        "input": "0xf2fde38b00000000000000000000000015c1eae4187991e36373f9b6d95a48cd9f0f7ec3",
        "nonce": "0xad",
        "chainId": "0x14a34"
      },
      "additionalContracts": [],
      "isFixedGasLimit": false
    },
    {
      "hash": null,
      "transactionType": "CALL",
      "contractName": null,
      "contractAddress": "0x7d1f00e8652e7c2222c1f84b34cc0654603f9a16",
      "function": "transferOwnership(address)",
      "arguments": [
        "0x15c1eAE4187991e36373f9b6D95A48CD9f0F7eC3"
      ],
      "transaction": {
        "from": "0x8affbdec195700db11465733146c708af538c0ed",
        "to": "0x7d1f00e8652e7c2222c1f84b34cc0654603f9a16",
        "gas": "0xa387",
        "value": "0x0",
        "input": "0xf2fde38b00000000000000000000000015c1eae4187991e36373f9b6d95a48cd9f0f7ec3",
        "nonce": "0xae",
        "chainId": "0x14a34"
      },
      "additionalContracts": [],
      "isFixedGasLimit": false
    },
    {
      "hash": null,
      "transactionType": "CALL",
      "contractName": null,
      "contractAddress": "0x027eef9dd7149f33a120df36e39beea074bf60a6",
      "function": "transferOwnership(address)",
      "arguments": [
        "0x15c1eAE4187991e36373f9b6D95A48CD9f0F7eC3"
      ],
      "transaction": {
        "from": "0x8affbdec195700db11465733146c708af538c0ed",
        "to": "0x027eef9dd7149f33a120df36e39beea074bf60a6",
        "gas": "0xa387",
        "value": "0x0",
        "input": "0xf2fde38b00000000000000000000000015c1eae4187991e36373f9b6d95a48cd9f0f7ec3",
        "nonce": "0xaf",
        "chainId": "0x14a34"
      },
      "additionalContracts": [],
      "isFixedGasLimit": false
    },
    {
      "hash": null,
      "transactionType": "CALL",
      "contractName": null,
      "contractAddress": "0x1529af7050c60c6958b09d2cc25d840e8a493e33",
      "function": "transferOwnership(address)",
      "arguments": [
        "0x15c1eAE4187991e36373f9b6D95A48CD9f0F7eC3"
      ],
      "transaction": {
        "from": "0x8affbdec195700db11465733146c708af538c0ed",
        "to": "0x1529af7050c60c6958b09d2cc25d840e8a493e33",
        "gas": "0xa387",
        "value": "0x0",
        "input": "0xf2fde38b00000000000000000000000015c1eae4187991e36373f9b6d95a48cd9f0f7ec3",
        "nonce": "0xb0",
        "chainId": "0x14a34"
      },
      "additionalContracts": [],
      "isFixedGasLimit": false
    }
  ],
  "receipts": [],
  "libraries": [],
  "pending": [],
  "returns": {},
  "timestamp": 1744379616,
  "chain": 84532,
  "commit": "3f2c649"
}