{
  "transactions": [
    {
      "hash": null,
      "transactionType": "CALL",
      "contractName": null,
      "contractAddress": "0xb400e518ee4da4aa7af349b313833e4ca07fa49a",
      "function": "transferOwnership(address)",
      "arguments": [
        "0xDb779a06F0430DE0e8a9Bd64dE3448Db8cccb4FE"
      ],
      "transaction": {
        "from": "0x8affbdec195700db11465733146c708af538c0ed",
        "to": "0xb400e518ee4da4aa7af349b313833e4ca07fa49a",
        "gas": "0xa387",
        "value": "0x0",
        "input": "0xf2fde38b000000000000000000000000db779a06f0430de0e8a9bd64de3448db8cccb4fe",
        "nonce": "0x99",
        "chainId": "0x8157"
      },
      "additionalContracts": [],
      "isFixedGasLimit": false
    },
    {
      "hash": null,
      "transactionType": "CALL",
      "contractName": null,
      "contractAddress": "0x12b59462c51fc097a98396f4c299d92181b784b0",
      "function": "transferOwnership(address)",
      "arguments": [
        "0xDb779a06F0430DE0e8a9Bd64dE3448Db8cccb4FE"
      ],
      "transaction": {
        "from": "0x8affbdec195700db11465733146c708af538c0ed",
        "to": "0x12b59462c51fc097a98396f4c299d92181b784b0",
        "gas": "0xa387",
        "value": "0x0",
        "input": "0xf2fde38b000000000000000000000000db779a06f0430de0e8a9bd64de3448db8cccb4fe",
        "nonce": "0x9a",
        "chainId": "0x8157"
      },
      "additionalContracts": [],
      "isFixedGasLimit": false
    },
    {
      "hash": null,
      "transactionType": "CALL",
      "contractName": null,
      "contractAddress": "0x3093902a1ed44cc002c39afeb2ac81ff911244aa",
      "function": "transferOwnership(address)",
      "arguments": [
        "0xDb779a06F0430DE0e8a9Bd64dE3448Db8cccb4FE"
      ],
      "transaction": {
        "from": "0x8affbdec195700db11465733146c708af538c0ed",
        "to": "0x3093902a1ed44cc002c39afeb2ac81ff911244aa",
        "gas": "0xa387",
        "value": "0x0",
        "input": "0xf2fde38b000000000000000000000000db779a06f0430de0e8a9bd64de3448db8cccb4fe",
        "nonce": "0x9b",
        "chainId": "0x8157"
      },
      "additionalContracts": [],
      "isFixedGasLimit": false
    },
    {
      "hash": null,
      "transactionType": "CALL",
      "contractName": null,
      "contractAddress": "0x6a91a55112718692bc3ca6694d82ce0df223b397",
      "function": "transferOwnership(address)",
      "arguments": [
        "0xDb779a06F0430DE0e8a9Bd64dE3448Db8cccb4FE"
      ],
      "transaction": {
        "from": "0x8affbdec195700db11465733146c708af538c0ed",
        "to": "0x6a91a55112718692bc3ca6694d82ce0df223b397",
        "gas": "0xa387",
        "value": "0x0",
        "input": "0xf2fde38b000000000000000000000000db779a06f0430de0e8a9bd64de3448db8cccb4fe",
        "nonce": "0x9c",
        "chainId": "0x8157"
      },
      "additionalContracts": [],
      "isFixedGasLimit": false
    },
    {
      "hash": null,
      "transactionType": "CALL",
      "contractName": null,
      "contractAddress": "0x1470ee063d4d25ae1f00fadefc2f57c48a0efb3f",
      "function": "transferOwnership(address)",
      "arguments": [
        "0xDb779a06F0430DE0e8a9Bd64dE3448Db8cccb4FE"
      ],
      "transaction": {
        "from": "0x8affbdec195700db11465733146c708af538c0ed",
        "to": "0x1470ee063d4d25ae1f00fadefc2f57c48a0efb3f",
        "gas": "0xa387",
        "value": "0x0",
        "input": "0xf2fde38b000000000000000000000000db779a06f0430de0e8a9bd64de3448db8cccb4fe",
        "nonce": "0x9d",
        "chainId": "0x8157"
      },
      "additionalContracts": [],
      "isFixedGasLimit": false
    },
    {
      "hash": null,
      "transactionType": "CALL",
      "contractName": null,
      "contractAddress": "0x6261fccd7c0dfd8ed54b1b7be274d1740e545fd0",
      "function": "transferOwnership(address)",
      "arguments": [
        "0xDb779a06F0430DE0e8a9Bd64dE3448Db8cccb4FE"
      ],
      "transaction": {
        "from": "0x8affbdec195700db11465733146c708af538c0ed",
        "to": "0x6261fccd7c0dfd8ed54b1b7be274d1740e545fd0",
        "gas": "0xa387",
        "value": "0x0",
        "input": "0xf2fde38b000000000000000000000000db779a06f0430de0e8a9bd64de3448db8cccb4fe",
        "nonce": "0x9e",
        "chainId": "0x8157"
      },
      "additionalContracts": [],
      "isFixedGasLimit": false
    },
    {
      "hash": null,
      "transactionType": "CALL",
      "contractName": null,
      "contractAddress": "0x48c40dff1ce8e3e31b2d193806222d1afc588f39",
      "function": "transferOwnership(address)",
      "arguments": [
        "0xDb779a06F0430DE0e8a9Bd64dE3448Db8cccb4FE"
      ],
      "transaction": {
        "from": "0x8affbdec195700db11465733146c708af538c0ed",
        "to": "0x48c40dff1ce8e3e31b2d193806222d1afc588f39",
        "gas": "0xa387",
        "value": "0x0",
        "input": "0xf2fde38b000000000000000000000000db779a06f0430de0e8a9bd64de3448db8cccb4fe",
        "nonce": "0x9f",
        "chainId": "0x8157"
      },
      "additionalContracts": [],
      "isFixedGasLimit": false
    },
    {
      "hash": null,
      "transactionType": "CALL",
      "contractName": null,
      "contractAddress": "0xa2aa5694a7c79d4e6585faf3451932161431f8cb",
      "function": "transferOwnership(address)",
      "arguments": [
        "0xDb779a06F0430DE0e8a9Bd64dE3448Db8cccb4FE"
      ],
      "transaction": {
        "from": "0x8affbdec195700db11465733146c708af538c0ed",
        "to": "0xa2aa5694a7c79d4e6585faf3451932161431f8cb",
        "gas": "0xa387",
        "value": "0x0",
        "input": "0xf2fde38b000000000000000000000000db779a06f0430de0e8a9bd64de3448db8cccb4fe",
        "nonce": "0xa0",
        "chainId": "0x8157"
      },
      "additionalContracts": [],
      "isFixedGasLimit": false
    },
    {
      "hash": null,
      "transactionType": "CALL",
      "contractName": null,
      "contractAddress": "0xb1696e86062a4b8a32ed672d6568d2c04e372020",
      "function": "transferOwnership(address)",
      "arguments": [
        "0xDb779a06F0430DE0e8a9Bd64dE3448Db8cccb4FE"
      ],
      "transaction": {
        "from": "0x8affbdec195700db11465733146c708af538c0ed",
        "to": "0xb1696e86062a4b8a32ed672d6568d2c04e372020",
        "gas": "0xa387",
        "value": "0x0",
        "input": "0xf2fde38b000000000000000000000000db779a06f0430de0e8a9bd64de3448db8cccb4fe",
        "nonce": "0xa1",
        "chainId": "0x8157"
      },
      "additionalContracts": [],
      "isFixedGasLimit": false
    },
    {
      "hash": null,
      "transactionType": "CALL",
      "contractName": null,
      "contractAddress": "0x2c60dead8a212dd77e9b2c9658e781e8b8642066",
      "function": "transferOwnership(address)",
      "arguments": [
        "0xDb779a06F0430DE0e8a9Bd64dE3448Db8cccb4FE"
      ],
      "transaction": {
        "from": "0x8affbdec195700db11465733146c708af538c0ed",
        "to": "0x2c60dead8a212dd77e9b2c9658e781e8b8642066",
        "gas": "0xa387",
        "value": "0x0",
        "input": "0xf2fde38b000000000000000000000000db779a06f0430de0e8a9bd64de3448db8cccb4fe",
        "nonce": "0xa2",
        "chainId": "0x8157"
      },
      "additionalContracts": [],
      "isFixedGasLimit": false
    },
    {
      "hash": null,
      "transactionType": "CALL",
      "contractName": null,
      "contractAddress": "0x3740ffe09157689d41cc96cb7b099ffbb7fa1465",
      "function": "transferOwnership(address)",
      "arguments": [
        "0xDb779a06F0430DE0e8a9Bd64dE3448Db8cccb4FE"
      ],
      "transaction": {
        "from": "0x8affbdec195700db11465733146c708af538c0ed",
        "to": "0x3740ffe09157689d41cc96cb7b099ffbb7fa1465",
        "gas": "0xa387",
        "value": "0x0",
        "input": "0xf2fde38b000000000000000000000000db779a06f0430de0e8a9bd64de3448db8cccb4fe",
        "nonce": "0xa3",
        "chainId": "0x8157"
      },
      "additionalContracts": [],
      "isFixedGasLimit": false
    },
    {
      "hash": null,
      "transactionType": "CALL",
      "contractName": null,
      "contractAddress": "0x0f1ed0f56b72177b8b20b9fa5cb4711c978093a2",
      "function": "transferOwnership(address)",
      "arguments": [
        "0xDb779a06F0430DE0e8a9Bd64dE3448Db8cccb4FE"
      ],
      "transaction": {
        "from": "0x8affbdec195700db11465733146c708af538c0ed",
        "to": "0x0f1ed0f56b72177b8b20b9fa5cb4711c978093a2",
        "gas": "0xa387",
        "value": "0x0",
        "input": "0xf2fde38b000000000000000000000000db779a06f0430de0e8a9bd64de3448db8cccb4fe",
        "nonce": "0xa4",
        "chainId": "0x8157"
      },
      "additionalContracts": [],
      "isFixedGasLimit": false
    },
    {
      "hash": null,
      "transactionType": "CALL",
      "contractName": null,
      "contractAddress": "0xf220e1c4567daf66932e08dd72eb0c1a57422fec",
      "function": "transferOwnership(address)",
      "arguments": [
        "0xDb779a06F0430DE0e8a9Bd64dE3448Db8cccb4FE"
      ],
      "transaction": {
        "from": "0x8affbdec195700db11465733146c708af538c0ed",
        "to": "0xf220e1c4567daf66932e08dd72eb0c1a57422fec",
        "gas": "0xa387",
        "value": "0x0",
        "input": "0xf2fde38b000000000000000000000000db779a06f0430de0e8a9bd64de3448db8cccb4fe",
        "nonce": "0xa5",
        "chainId": "0x8157"
      },
      "additionalContracts": [],
      "isFixedGasLimit": false
    },
    {
      "hash": null,
      "transactionType": "CALL",
      "contractName": null,
      "contractAddress": "0x0cbb247f8a73046d6d4b6ca7e6904525509dc767",
      "function": "transferOwnership(address)",
      "arguments": [
        "0xDb779a06F0430DE0e8a9Bd64dE3448Db8cccb4FE"
      ],
      "transaction": {
        "from": "0x8affbdec195700db11465733146c708af538c0ed",
        "to": "0x0cbb247f8a73046d6d4b6ca7e6904525509dc767",
        "gas": "0xa387",
        "value": "0x0",
        "input": "0xf2fde38b000000000000000000000000db779a06f0430de0e8a9bd64de3448db8cccb4fe",
        "nonce": "0xa6",
        "chainId": "0x8157"
      },
      "additionalContracts": [],
      "isFixedGasLimit": false
    },
    {
      "hash": null,
      "transactionType": "CALL",
      "contractName": null,
      "contractAddress": "0xe251faa927e4545ad642ee9b6fc22f1fd3d1b18c",
      "function": "transferOwnership(address)",
      "arguments": [
        "0xDb779a06F0430DE0e8a9Bd64dE3448Db8cccb4FE"
      ],
      "transaction": {
        "from": "0x8affbdec195700db11465733146c708af538c0ed",
        "to": "0xe251faa927e4545ad642ee9b6fc22f1fd3d1b18c",
        "gas": "0xa387",
        "value": "0x0",
        "input": "0xf2fde38b000000000000000000000000db779a06f0430de0e8a9bd64de3448db8cccb4fe",
        "nonce": "0xa7",
        "chainId": "0x8157"
      },
      "additionalContracts": [],
      "isFixedGasLimit": false
    },
    {
      "hash": null,
      "transactionType": "CALL",
      "contractName": null,
      "contractAddress": "0x633638ad3fd023ee90975ef50eaffec5ed37d245",
      "function": "transferOwnership(address)",
      "arguments": [
        "0xDb779a06F0430DE0e8a9Bd64dE3448Db8cccb4FE"
      ],
      "transaction": {
        "from": "0x8affbdec195700db11465733146c708af538c0ed",
        "to": "0x633638ad3fd023ee90975ef50eaffec5ed37d245",
        "gas": "0xa387",
        "value": "0x0",
        "input": "0xf2fde38b000000000000000000000000db779a06f0430de0e8a9bd64de3448db8cccb4fe",
        "nonce": "0xa8",
        "chainId": "0x8157"
      },
      "additionalContracts": [],
      "isFixedGasLimit": false
    },
    {
      "hash": null,
      "transactionType": "CALL",
      "contractName": null,
      "contractAddress": "0x3532f6738344e975ac4803a8f0ae103a00f190cf",
      "function": "transferOwnership(address)",
      "arguments": [
        "0xDb779a06F0430DE0e8a9Bd64dE3448Db8cccb4FE"
      ],
      "transaction": {
        "from": "0x8affbdec195700db11465733146c708af538c0ed",
        "to": "0x3532f6738344e975ac4803a8f0ae103a00f190cf",
        "gas": "0xa387",
        "value": "0x0",
        "input": "0xf2fde38b000000000000000000000000db779a06f0430de0e8a9bd64de3448db8cccb4fe",
        "nonce": "0xa9",
        "chainId": "0x8157"
      },
      "additionalContracts": [],
      "isFixedGasLimit": false
    },
    {
      "hash": null,
      "transactionType": "CALL",
      "contractName": null,
      "contractAddress": "0x877820b70bef3786f0f7a7b4bd9ae265747137c6",
      "function": "transferOwnership(address)",
      "arguments": [
        "0xDb779a06F0430DE0e8a9Bd64dE3448Db8cccb4FE"
      ],
      "transaction": {
        "from": "0x8affbdec195700db11465733146c708af538c0ed",
        "to": "0x877820b70bef3786f0f7a7b4bd9ae265747137c6",
        "gas": "0xa387",
        "value": "0x0",
        "input": "0xf2fde38b000000000000000000000000db779a06f0430de0e8a9bd64de3448db8cccb4fe",
        "nonce": "0xaa",
        "chainId": "0x8157"
      },
      "additionalContracts": [],
      "isFixedGasLimit": false
    },
    {
      "hash": null,
      "transactionType": "CALL",
      "contractName": null,
      "contractAddress": "0x882359f30e644420a3c6c47f126006c4d6345770",
      "function": "transferOwnership(address)",
      "arguments": [
        "0xDb779a06F0430DE0e8a9Bd64dE3448Db8cccb4FE"
      ],
      "transaction": {
        "from": "0x8affbdec195700db11465733146c708af538c0ed",
        "to": "0x882359f30e644420a3c6c47f126006c4d6345770",
        "gas": "0xa387",
        "value": "0x0",
        "input": "0xf2fde38b000000000000000000000000db779a06f0430de0e8a9bd64de3448db8cccb4fe",
        "nonce": "0xab",
        "chainId": "0x8157"
      },
      "additionalContracts": [],
      "isFixedGasLimit": false
    },
    {
      "hash": null,
      "transactionType": "CALL",
      "contractName": null,
      "contractAddress": "0xaa7b361c19dcc761a3f90425e33d7a0499355579",
      "function": "transferOwnership(address)",
      "arguments": [
        "0xDb779a06F0430DE0e8a9Bd64dE3448Db8cccb4FE"
      ],
      "transaction": {
        "from": "0x8affbdec195700db11465733146c708af538c0ed",
        "to": "0xaa7b361c19dcc761a3f90425e33d7a0499355579",
        "gas": "0xa387",
        "value": "0x0",
        "input": "0xf2fde38b000000000000000000000000db779a06f0430de0e8a9bd64de3448db8cccb4fe",
        "nonce": "0xac",
        "chainId": "0x8157"
      },
      "additionalContracts": [],
      "isFixedGasLimit": false
    },
    {
      "hash": null,
      "transactionType": "CALL",
      "contractName": null,
      "contractAddress": "0x67b2fc247ce60df7edaaaac52460fdebcbb265ea",
      "function": "transferOwnership(address)",
      "arguments": [
        "0xDb779a06F0430DE0e8a9Bd64dE3448Db8cccb4FE"
      ],
      "transaction": {
        "from": "0x8affbdec195700db11465733146c708af538c0ed",
        "to": "0x67b2fc247ce60df7edaaaac52460fdebcbb265ea",
        "gas": "0xa387",
        "value": "0x0",
        "input": "0xf2fde38b000000000000000000000000db779a06f0430de0e8a9bd64de3448db8cccb4fe",
        "nonce": "0xad",
        "chainId": "0x8157"
      },
      "additionalContracts": [],
      "isFixedGasLimit": false
    },
    {
      "hash": null,
      "transactionType": "CALL",
      "contractName": null,
      "contractAddress": "0x9587644c004c79bb20c917779a6093aaa04ad3bc",
      "function": "transferOwnership(address)",
      "arguments": [
        "0xDb779a06F0430DE0e8a9Bd64dE3448Db8cccb4FE"
      ],
      "transaction": {
        "from": "0x8affbdec195700db11465733146c708af538c0ed",
        "to": "0x9587644c004c79bb20c917779a6093aaa04ad3bc",
        "gas": "0xa387",
        "value": "0x0",
        "input": "0xf2fde38b000000000000000000000000db779a06f0430de0e8a9bd64de3448db8cccb4fe",
        "nonce": "0xae",
        "chainId": "0x8157"
      },
      "additionalContracts": [],
      "isFixedGasLimit": false
    },
    {
      "hash": null,
      "transactionType": "CALL",
      "contractName": null,
      "contractAddress": "0x5a8523f94f42fa4c4d52a2861fc1c3474f9c37ef",
      "function": "transferOwnership(address)",
      "arguments": [
        "0xDb779a06F0430DE0e8a9Bd64dE3448Db8cccb4FE"
      ],
      "transaction": {
        "from": "0x8affbdec195700db11465733146c708af538c0ed",
        "to": "0x5a8523f94f42fa4c4d52a2861fc1c3474f9c37ef",
        "gas": "0xa387",
        "value": "0x0",
        "input": "0xf2fde38b000000000000000000000000db779a06f0430de0e8a9bd64de3448db8cccb4fe",
        "nonce": "0xaf",
        "chainId": "0x8157"
      },
      "additionalContracts": [],
      "isFixedGasLimit": false
    },
    {
      "hash": null,
      "transactionType": "CALL",
      "contractName": null,
      "contractAddress": "0x51c7422548009890d85e076ca04ea8878f6b428f",
      "function": "transferOwnership(address)",
      "arguments": [
        "0xDb779a06F0430DE0e8a9Bd64dE3448Db8cccb4FE"
      ],
      "transaction": {
        "from": "0x8affbdec195700db11465733146c708af538c0ed",
        "to": "0x51c7422548009890d85e076ca04ea8878f6b428f",
        "gas": "0xa387",
        "value": "0x0",
        "input": "0xf2fde38b000000000000000000000000db779a06f0430de0e8a9bd64de3448db8cccb4fe",
        "nonce": "0xb0",
        "chainId": "0x8157"
      },
      "additionalContracts": [],
      "isFixedGasLimit": false
    }
  ],
  "receipts": [],
  "libraries": [],
  "pending": [],
  "returns": {},
  "timestamp": 1744378639,
  "chain": 33111,
  "commit": "3f2c649"
}