{
  "transactions": [
    {
      "hash": null,
      "transactionType": "CALL",
      "contractName": null,
      "contractAddress": "0x5a8523f94f42fa4c4d52a2861fc1c3474f9c37ef",
      "function": "transferOwnership(address)",
      "arguments": [
        "0xDb779a06F0430DE0e8a9Bd64dE3448Db8cccb4FE"
      ],
      "transaction": {
        "from": "0x8affbdec195700db11465733146c708af538c0ed",
        "to": "0x5a8523f94f42fa4c4d52a2861fc1c3474f9c37ef",
        "gas": "0xa387",
        "value": "0x0",
        "input": "0xf2fde38b000000000000000000000000db779a06f0430de0e8a9bd64de3448db8cccb4fe",
        "nonce": "0x10a",
        "chainId": "0x13882"
      },
      "additionalContracts": [],
      "isFixedGasLimit": false
    },
    {
      "hash": null,
      "transactionType": "CALL",
      "contractName": null,
      "contractAddress": "0x2427e2bf62963361dc96b78527ff7b8b56d0b8f4",
      "function": "transferOwnership(address)",
      "arguments": [
        "0xDb779a06F0430DE0e8a9Bd64dE3448Db8cccb4FE"
      ],
      "transaction": {
        "from": "0x8affbdec195700db11465733146c708af538c0ed",
        "to": "0x2427e2bf62963361dc96b78527ff7b8b56d0b8f4",
        "gas": "0xa387",
        "value": "0x0",
        "input": "0xf2fde38b000000000000000000000000db779a06f0430de0e8a9bd64de3448db8cccb4fe",
        "nonce": "0x10b",
        "chainId": "0x13882"
      },
      "additionalContracts": [],
      "isFixedGasLimit": false
    },
    {
      "hash": null,
      "transactionType": "CALL",
      "contractName": null,
      "contractAddress": "0x9587644c004c79bb20c917779a6093aaa04ad3bc",
      "function": "transferOwnership(address)",
      "arguments": [
        "0xDb779a06F0430DE0e8a9Bd64dE3448Db8cccb4FE"
      ],
      "transaction": {
        "from": "0x8affbdec195700db11465733146c708af538c0ed",
        "to": "0x9587644c004c79bb20c917779a6093aaa04ad3bc",
        "gas": "0xa387",
        "value": "0x0",
        "input": "0xf2fde38b000000000000000000000000db779a06f0430de0e8a9bd64de3448db8cccb4fe",
        "nonce": "0x10c",
        "chainId": "0x13882"
      },
      "additionalContracts": [],
      "isFixedGasLimit": false
    },
    {
      "hash": null,
      "transactionType": "CALL",
      "contractName": null,
      "contractAddress": "0x2cdb24cec835e5cd6cb2d32567d015b603391dc8",
      "function": "transferOwnership(address)",
      "arguments": [
        "0xDb779a06F0430DE0e8a9Bd64dE3448Db8cccb4FE"
      ],
      "transaction": {
        "from": "0x8affbdec195700db11465733146c708af538c0ed",
        "to": "0x2cdb24cec835e5cd6cb2d32567d015b603391dc8",
        "gas": "0xa387",
        "value": "0x0",
        "input": "0xf2fde38b000000000000000000000000db779a06f0430de0e8a9bd64de3448db8cccb4fe",
        "nonce": "0x10d",
        "chainId": "0x13882"
      },
      "additionalContracts": [],
      "isFixedGasLimit": false
    },
    {
      "hash": null,
      "transactionType": "CALL",
      "contractName": null,
      "contractAddress": "0x882359f30e644420a3c6c47f126006c4d6345770",
      "function": "transferOwnership(address)",
      "arguments": [
        "0xDb779a06F0430DE0e8a9Bd64dE3448Db8cccb4FE"
      ],
      "transaction": {
        "from": "0x8affbdec195700db11465733146c708af538c0ed",
        "to": "0x882359f30e644420a3c6c47f126006c4d6345770",
        "gas": "0xa387",
        "value": "0x0",
        "input": "0xf2fde38b000000000000000000000000db779a06f0430de0e8a9bd64de3448db8cccb4fe",
        "nonce": "0x10e",
        "chainId": "0x13882"
      },
      "additionalContracts": [],
      "isFixedGasLimit": false
    },
    {
      "hash": null,
      "transactionType": "CALL",
      "contractName": null,
      "contractAddress": "0xbbe290da118ac3be60eb932a2c888306dc0b3df7",
      "function": "transferOwnership(address)",
      "arguments": [
        "0xDb779a06F0430DE0e8a9Bd64dE3448Db8cccb4FE"
      ],
      "transaction": {
        "from": "0x8affbdec195700db11465733146c708af538c0ed",
        "to": "0xbbe290da118ac3be60eb932a2c888306dc0b3df7",
        "gas": "0xa387",
        "value": "0x0",
        "input": "0xf2fde38b000000000000000000000000db779a06f0430de0e8a9bd64de3448db8cccb4fe",
        "nonce": "0x10f",
        "chainId": "0x13882"
      },
      "additionalContracts": [],
      "isFixedGasLimit": false
    }
  ],
  "receipts": [],
  "libraries": [],
  "pending": [],
  "returns": {},
  "timestamp": 1744378680,
  "chain": 80002,
  "commit": "3f2c649"
}