{
  "transactions": [
    {
      "hash": "0x3cb35a445a2de4310ded68ff516db68f05ed931e190d38d7c3bfdb9b8f41c17e",
      "transactionType": "CALL",
      "contractName": null,
      "contractAddress": "0x24d1f5d4c7ffb4a51ce45598b29fc4ce7457a639",
      "function": "transferOwnership(address)",
      "arguments": [
        "0xDb779a06F0430DE0e8a9Bd64dE3448Db8cccb4FE"
      ],
      "transaction": {
        "from": "0xdb779a06f0430de0e8a9bd64de3448db8cccb4fe",
        "to": "0x24d1f5d4c7ffb4a51ce45598b29fc4ce7457a639",
        "gas": "0x9388",
        "value": "0x0",
        "input": "0xf2fde38b000000000000000000000000db779a06f0430de0e8a9bd64de3448db8cccb4fe",
        "nonce": "0x60",
        "chainId": "0x13882"
      },
      "additionalContracts": [],
      "isFixedGasLimit": false
    },
    {
      "hash": "0xe3d471c8153aac7c36356018fc0999591dc093fb3a7587dc370dddee4ad21d10",
      "transactionType": "CALL",
      "contractName": null,
      "contractAddress": "0x24d1f5d4c7ffb4a51ce45598b29fc4ce7457a639",
      "function": "transferOwnership(address)",
      "arguments": [
        "0xDb779a06F0430DE0e8a9Bd64dE3448Db8cccb4FE"
      ],
      "transaction": {
        "from": "0xdb779a06f0430de0e8a9bd64de3448db8cccb4fe",
        "to": "0x24d1f5d4c7ffb4a51ce45598b29fc4ce7457a639",
        "gas": "0x9388",
        "value": "0x0",
        "input": "0xf2fde38b000000000000000000000000db779a06f0430de0e8a9bd64de3448db8cccb4fe",
        "nonce": "0x61",
        "chainId": "0x13882"
      },
      "additionalContracts": [],
      "isFixedGasLimit": false
    },
    {
      "hash": "0x285775e96a0fdf46fb4d111a1604385fbde275b4e5a5e0a43662b092fda593fd",
      "transactionType": "CALL",
      "contractName": null,
      "contractAddress": "0x24d1f5d4c7ffb4a51ce45598b29fc4ce7457a639",
      "function": "transferOwnership(address)",
      "arguments": [
        "0xDb779a06F0430DE0e8a9Bd64dE3448Db8cccb4FE"
      ],
      "transaction": {
        "from": "0xdb779a06f0430de0e8a9bd64de3448db8cccb4fe",
        "to": "0x24d1f5d4c7ffb4a51ce45598b29fc4ce7457a639",
        "gas": "0x9388",
        "value": "0x0",
        "input": "0xf2fde38b000000000000000000000000db779a06f0430de0e8a9bd64de3448db8cccb4fe",
        "nonce": "0x62",
        "chainId": "0x13882"
      },
      "additionalContracts": [],
      "isFixedGasLimit": false
    },
    {
      "hash": "0x9c979458a1ed7284877096a38d320a1b7e8ffeaab805a88eea31d4f8212bae7e",
      "transactionType": "CALL",
      "contractName": null,
      "contractAddress": "0x24d1f5d4c7ffb4a51ce45598b29fc4ce7457a639",
      "function": "transferOwnership(address)",
      "arguments": [
        "0xDb779a06F0430DE0e8a9Bd64dE3448Db8cccb4FE"
      ],
      "transaction": {
        "from": "0xdb779a06f0430de0e8a9bd64de3448db8cccb4fe",
        "to": "0x24d1f5d4c7ffb4a51ce45598b29fc4ce7457a639",
        "gas": "0x9388",
        "value": "0x0",
        "input": "0xf2fde38b000000000000000000000000db779a06f0430de0e8a9bd64de3448db8cccb4fe",
        "nonce": "0x63",
        "chainId": "0x13882"
      },
      "additionalContracts": [],
      "isFixedGasLimit": false
    },
    {
      "hash": "0x44b7a33fe4015c21fc94260084f3950b7b8cad2f5eb55b8392d6a511270c09fa",
      "transactionType": "CALL",
      "contractName": null,
      "contractAddress": "0x24d1f5d4c7ffb4a51ce45598b29fc4ce7457a639",
      "function": "transferOwnership(address)",
      "arguments": [
        "0xDb779a06F0430DE0e8a9Bd64dE3448Db8cccb4FE"
      ],
      "transaction": {
        "from": "0xdb779a06f0430de0e8a9bd64de3448db8cccb4fe",
        "to": "0x24d1f5d4c7ffb4a51ce45598b29fc4ce7457a639",
        "gas": "0x9388",
        "value": "0x0",
        "input": "0xf2fde38b000000000000000000000000db779a06f0430de0e8a9bd64de3448db8cccb4fe",
        "nonce": "0x64",
        "chainId": "0x13882"
      },
      "additionalContracts": [],
      "isFixedGasLimit": false
    }
  ],
  "receipts": [
    {
      "status": "0x1",
      "cumulativeGasUsed": "0x108f1",
      "logs": [
        {
          "address": "0x24d1f5d4c7ffb4a51ce45598b29fc4ce7457a639",
          "topics": [
            "0x8be0079c531659141344cd1fd0a4f28419497f9722a3daafe3b4186f6b6457e0",
            "0x000000000000000000000000db779a06f0430de0e8a9bd64de3448db8cccb4fe",
            "0x000000000000000000000000db779a06f0430de0e8a9bd64de3448db8cccb4fe"
          ],
          "data": "0x",
          "blockHash": "0xd55569f6cc75825ec9c896798663c95c8e881026cad393c450081cfdcc0279cb",
          "blockNumber": "0x1360f2b",
          "transactionHash": "0x3cb35a445a2de4310ded68ff516db68f05ed931e190d38d7c3bfdb9b8f41c17e",
          "transactionIndex": "0x2",
          "logIndex": "0x4",
          "removed": false
        },
        {
          "address": "0x0000000000000000000000000000000000001010",
          "topics": [
            "0x4dfe1bbbcf077ddc3e01291eea2d5c70c2b422b415d95645b9adcfd678cb1d63",
            "0x0000000000000000000000000000000000000000000000000000000000001010",
            "0x000000000000000000000000db779a06f0430de0e8a9bd64de3448db8cccb4fe",
            "0x0000000000000000000000004631753190f2f5a15a7ba172bbac102b7d95fa22"
          ],
          "data": "0x00000000000000000000000000000000000000000000000000092cc5231bfed1000000000000000000000000000000000000000000000000840db98c08cd42350000000000000000000000000000000000000000000008104e7d3e8e14520ae600000000000000000000000000000000000000000000000084048cc6e5b143640000000000000000000000000000000000000000000008104e866b53376e09b7",
          "blockHash": "0xd55569f6cc75825ec9c896798663c95c8e881026cad393c450081cfdcc0279cb",
          "blockNumber": "0x1360f2b",
          "transactionHash": "0x3cb35a445a2de4310ded68ff516db68f05ed931e190d38d7c3bfdb9b8f41c17e",
          "transactionIndex": "0x2",
          "logIndex": "0x5",
          "removed": false
        }
      ],
      "logsBloom": "0x00000000000000000000000000000000000000002000000000808000000000000000000000000000000000000000000000008000000000000000000040000000000000000000000000000000000000800001000000000000000100000000000000000000000000100000000000000000000000000000000080000000000000400000000000000000000000000000000000000000000400000000004000000000200000000000000000000000000000000000000000000000000000000800004000000000000000000001000000000000000000000000000000100000000000000000000000000000000000000000000000000000000000000000000000100200",
      "type": "0x2",
      "transactionHash": "0x3cb35a445a2de4310ded68ff516db68f05ed931e190d38d7c3bfdb9b8f41c17e",
      "transactionIndex": "0x2",
      "blockHash": "0xd55569f6cc75825ec9c896798663c95c8e881026cad393c450081cfdcc0279cb",
      "blockNumber": "0x1360f2b",
      "gasUsed": "0x64e1",
      "effectiveGasPrice": "0x174876e800",
      "from": "0xdb779a06f0430de0e8a9bd64de3448db8cccb4fe",
      "to": "0x24d1f5d4c7ffb4a51ce45598b29fc4ce7457a639",
      "contractAddress": null
    },
    {
      "status": "0x1",
      "cumulativeGasUsed": "0x64e1",
      "logs": [
        {
          "address": "0x24d1f5d4c7ffb4a51ce45598b29fc4ce7457a639",
          "topics": [
            "0x8be0079c531659141344cd1fd0a4f28419497f9722a3daafe3b4186f6b6457e0",
            "0x000000000000000000000000db779a06f0430de0e8a9bd64de3448db8cccb4fe",
            "0x000000000000000000000000db779a06f0430de0e8a9bd64de3448db8cccb4fe"
          ],
          "data": "0x",
          "blockHash": "0x481fa6084c78b39807ed6c3b214c1e2527e66b0193f3d443709280d5c6e2582d",
          "blockNumber": "0x1360f2c",
          "transactionHash": "0xe3d471c8153aac7c36356018fc0999591dc093fb3a7587dc370dddee4ad21d10",
          "transactionIndex": "0x0",
          "logIndex": "0x0",
          "removed": false
        },
        {
          "address": "0x0000000000000000000000000000000000001010",
          "topics": [
            "0x4dfe1bbbcf077ddc3e01291eea2d5c70c2b422b415d95645b9adcfd678cb1d63",
            "0x0000000000000000000000000000000000000000000000000000000000001010",
            "0x000000000000000000000000db779a06f0430de0e8a9bd64de3448db8cccb4fe",
            "0x0000000000000000000000004631753190f2f5a15a7ba172bbac102b7d95fa22"
          ],
          "data": "0x00000000000000000000000000000000000000000000000000092cc5231bfed100000000000000000000000000000000000000000000000084048cc6e5ab5a350000000000000000000000000000000000000000000008104e866b53376e09b700000000000000000000000000000000000000000000000083fb6001c28f5b640000000000000000000000000000000000000000000008104e8f98185a8a0888",
          "blockHash": "0x481fa6084c78b39807ed6c3b214c1e2527e66b0193f3d443709280d5c6e2582d",
          "blockNumber": "0x1360f2c",
          "transactionHash": "0xe3d471c8153aac7c36356018fc0999591dc093fb3a7587dc370dddee4ad21d10",
          "transactionIndex": "0x0",
          "logIndex": "0x1",
          "removed": false
        }
      ],
      "logsBloom": "0x00000000000000000000000000000000000000002000000000808000000000000000000000000000000000000000000000008000000000000000000040000000000000000000000000000000000000800001000000000000000100000000000000000000000000100000000000000000000000000000000080000000000000400000000000000000000000000000000000000000000400000000004000000000200000000000000000000000000000000000000000000000000000000800004000000000000000000001000000000000000000000000000000100000000000000000000000000000000000000000000000000000000000000000000000100200",
      "type": "0x2",
      "transactionHash": "0xe3d471c8153aac7c36356018fc0999591dc093fb3a7587dc370dddee4ad21d10",
      "transactionIndex": "0x0",
      "blockHash": "0x481fa6084c78b39807ed6c3b214c1e2527e66b0193f3d443709280d5c6e2582d",
      "blockNumber": "0x1360f2c",
      "gasUsed": "0x64e1",
      "effectiveGasPrice": "0x174876e800",
      "from": "0xdb779a06f0430de0e8a9bd64de3448db8cccb4fe",
      "to": "0x24d1f5d4c7ffb4a51ce45598b29fc4ce7457a639",
      "contractAddress": null
    },
    {
      "status": "0x1",
      "cumulativeGasUsed": "0xc9c2",
      "logs": [
        {
          "address": "0x24d1f5d4c7ffb4a51ce45598b29fc4ce7457a639",
          "topics": [
            "0x8be0079c531659141344cd1fd0a4f28419497f9722a3daafe3b4186f6b6457e0",
            "0x000000000000000000000000db779a06f0430de0e8a9bd64de3448db8cccb4fe",
            "0x000000000000000000000000db779a06f0430de0e8a9bd64de3448db8cccb4fe"
          ],
          "data": "0x",
          "blockHash": "0x481fa6084c78b39807ed6c3b214c1e2527e66b0193f3d443709280d5c6e2582d",
          "blockNumber": "0x1360f2c",
          "transactionHash": "0x285775e96a0fdf46fb4d111a1604385fbde275b4e5a5e0a43662b092fda593fd",
          "transactionIndex": "0x1",
          "logIndex": "0x2",
          "removed": false
        },
        {
          "address": "0x0000000000000000000000000000000000001010",
          "topics": [
            "0x4dfe1bbbcf077ddc3e01291eea2d5c70c2b422b415d95645b9adcfd678cb1d63",
            "0x0000000000000000000000000000000000000000000000000000000000001010",
            "0x000000000000000000000000db779a06f0430de0e8a9bd64de3448db8cccb4fe",
            "0x0000000000000000000000004631753190f2f5a15a7ba172bbac102b7d95fa22"
          ],
          "data": "0x00000000000000000000000000000000000000000000000000092cc5231bfed100000000000000000000000000000000000000000000000083fb6001c28972350000000000000000000000000000000000000000000008104e8f98185a8a088800000000000000000000000000000000000000000000000083f2333c9f6d73640000000000000000000000000000000000000000000008104e98c4dd7da60759",
          "blockHash": "0x481fa6084c78b39807ed6c3b214c1e2527e66b0193f3d443709280d5c6e2582d",
          "blockNumber": "0x1360f2c",
          "transactionHash": "0x285775e96a0fdf46fb4d111a1604385fbde275b4e5a5e0a43662b092fda593fd",
          "transactionIndex": "0x1",
          "logIndex": "0x3",
          "removed": false
        }
      ],
      "logsBloom": "0x00000000000000000000000000000000000000002000000000808000000000000000000000000000000000000000000000008000000000000000000040000000000000000000000000000000000000800001000000000000000100000000000000000000000000100000000000000000000000000000000080000000000000400000000000000000000000000000000000000000000400000000004000000000200000000000000000000000000000000000000000000000000000000800004000000000000000000001000000000000000000000000000000100000000000000000000000000000000000000000000000000000000000000000000000100200",
      "type": "0x2",
      "transactionHash": "0x285775e96a0fdf46fb4d111a1604385fbde275b4e5a5e0a43662b092fda593fd",
      "transactionIndex": "0x1",
      "blockHash": "0x481fa6084c78b39807ed6c3b214c1e2527e66b0193f3d443709280d5c6e2582d",
      "blockNumber": "0x1360f2c",
      "gasUsed": "0x64e1",
      "effectiveGasPrice": "0x174876e800",
      "from": "0xdb779a06f0430de0e8a9bd64de3448db8cccb4fe",
      "to": "0x24d1f5d4c7ffb4a51ce45598b29fc4ce7457a639",
      "contractAddress": null
    },
    {
      "status": "0x1",
      "cumulativeGasUsed": "0x12ea3",
      "logs": [
        {
          "address": "0x24d1f5d4c7ffb4a51ce45598b29fc4ce7457a639",
          "topics": [
            "0x8be0079c531659141344cd1fd0a4f28419497f9722a3daafe3b4186f6b6457e0",
            "0x000000000000000000000000db779a06f0430de0e8a9bd64de3448db8cccb4fe",
            "0x000000000000000000000000db779a06f0430de0e8a9bd64de3448db8cccb4fe"
          ],
          "data": "0x",
          "blockHash": "0x481fa6084c78b39807ed6c3b214c1e2527e66b0193f3d443709280d5c6e2582d",
          "blockNumber": "0x1360f2c",
          "transactionHash": "0x9c979458a1ed7284877096a38d320a1b7e8ffeaab805a88eea31d4f8212bae7e",
          "transactionIndex": "0x2",
          "logIndex": "0x4",
          "removed": false
        },
        {
          "address": "0x0000000000000000000000000000000000001010",
          "topics": [
            "0x4dfe1bbbcf077ddc3e01291eea2d5c70c2b422b415d95645b9adcfd678cb1d63",
            "0x0000000000000000000000000000000000000000000000000000000000001010",
            "0x000000000000000000000000db779a06f0430de0e8a9bd64de3448db8cccb4fe",
            "0x0000000000000000000000004631753190f2f5a15a7ba172bbac102b7d95fa22"
          ],
          "data": "0x00000000000000000000000000000000000000000000000000092cc5231bfed100000000000000000000000000000000000000000000000083f2333c9f678a350000000000000000000000000000000000000000000008104e98c4dd7da6075900000000000000000000000000000000000000000000000083e906777c4b8b640000000000000000000000000000000000000000000008104ea1f1a2a0c2062a",
          "blockHash": "0x481fa6084c78b39807ed6c3b214c1e2527e66b0193f3d443709280d5c6e2582d",
          "blockNumber": "0x1360f2c",
          "transactionHash": "0x9c979458a1ed7284877096a38d320a1b7e8ffeaab805a88eea31d4f8212bae7e",
          "transactionIndex": "0x2",
          "logIndex": "0x5",
          "removed": false
        }
      ],
      "logsBloom": "0x00000000000000000000000000000000000000002000000000808000000000000000000000000000000000000000000000008000000000000000000040000000000000000000000000000000000000800001000000000000000100000000000000000000000000100000000000000000000000000000000080000000000000400000000000000000000000000000000000000000000400000000004000000000200000000000000000000000000000000000000000000000000000000800004000000000000000000001000000000000000000000000000000100000000000000000000000000000000000000000000000000000000000000000000000100200",
      "type": "0x2",
      "transactionHash": "0x9c979458a1ed7284877096a38d320a1b7e8ffeaab805a88eea31d4f8212bae7e",
      "transactionIndex": "0x2",
      "blockHash": "0x481fa6084c78b39807ed6c3b214c1e2527e66b0193f3d443709280d5c6e2582d",
      "blockNumber": "0x1360f2c",
      "gasUsed": "0x64e1",
      "effectiveGasPrice": "0x174876e800",
      "from": "0xdb779a06f0430de0e8a9bd64de3448db8cccb4fe",
      "to": "0x24d1f5d4c7ffb4a51ce45598b29fc4ce7457a639",
      "contractAddress": null
    },
    {
      "status": "0x1",
      "cumulativeGasUsed": "0x19384",
      "logs": [
        {
          "address": "0x24d1f5d4c7ffb4a51ce45598b29fc4ce7457a639",
          "topics": [
            "0x8be0079c531659141344cd1fd0a4f28419497f9722a3daafe3b4186f6b6457e0",
            "0x000000000000000000000000db779a06f0430de0e8a9bd64de3448db8cccb4fe",
            "0x000000000000000000000000db779a06f0430de0e8a9bd64de3448db8cccb4fe"
          ],
          "data": "0x",
          "blockHash": "0x481fa6084c78b39807ed6c3b214c1e2527e66b0193f3d443709280d5c6e2582d",
          "blockNumber": "0x1360f2c",
          "transactionHash": "0x44b7a33fe4015c21fc94260084f3950b7b8cad2f5eb55b8392d6a511270c09fa",
          "transactionIndex": "0x3",
          "logIndex": "0x6",
          "removed": false
        },
        {
          "address": "0x0000000000000000000000000000000000001010",
          "topics": [
            "0x4dfe1bbbcf077ddc3e01291eea2d5c70c2b422b415d95645b9adcfd678cb1d63",
            "0x0000000000000000000000000000000000000000000000000000000000001010",
            "0x000000000000000000000000db779a06f0430de0e8a9bd64de3448db8cccb4fe",
            "0x0000000000000000000000004631753190f2f5a15a7ba172bbac102b7d95fa22"
          ],
          "data": "0x00000000000000000000000000000000000000000000000000092cc5231bfed100000000000000000000000000000000000000000000000083e906777c45a2350000000000000000000000000000000000000000000008104ea1f1a2a0c2062a00000000000000000000000000000000000000000000000083dfd9b25929a3640000000000000000000000000000000000000000000008104eab1e67c3de04fb",
          "blockHash": "0x481fa6084c78b39807ed6c3b214c1e2527e66b0193f3d443709280d5c6e2582d",
          "blockNumber": "0x1360f2c",
          "transactionHash": "0x44b7a33fe4015c21fc94260084f3950b7b8cad2f5eb55b8392d6a511270c09fa",
          "transactionIndex": "0x3",
          "logIndex": "0x7",
          "removed": false
        }
      ],
      "logsBloom": "0x00000000000000000000000000000000000000002000000000808000000000000000000000000000000000000000000000008000000000000000000040000000000000000000000000000000000000800001000000000000000100000000000000000000000000100000000000000000000000000000000080000000000000400000000000000000000000000000000000000000000400000000004000000000200000000000000000000000000000000000000000000000000000000800004000000000000000000001000000000000000000000000000000100000000000000000000000000000000000000000000000000000000000000000000000100200",
      "type": "0x2",
      "transactionHash": "0x44b7a33fe4015c21fc94260084f3950b7b8cad2f5eb55b8392d6a511270c09fa",
      "transactionIndex": "0x3",
      "blockHash": "0x481fa6084c78b39807ed6c3b214c1e2527e66b0193f3d443709280d5c6e2582d",
      "blockNumber": "0x1360f2c",
      "gasUsed": "0x64e1",
      "effectiveGasPrice": "0x174876e800",
      "from": "0xdb779a06f0430de0e8a9bd64de3448db8cccb4fe",
      "to": "0x24d1f5d4c7ffb4a51ce45598b29fc4ce7457a639",
      "contractAddress": null
    }
  ],
  "libraries": [],
  "pending": [],
  "returns": {},
  "timestamp": 1744369655,
  "chain": 80002,
  "commit": "3f2c649"
}