{
  "transactions": [
    {
      "hash": null,
      "transactionType": "CALL",
      "contractName": null,
      "contractAddress": "0xa0a27a0fd9cc05fa45caaea35e22f4ad2a65c9b6",
      "function": "transferOwnership(address)",
      "arguments": [
        "0x15c1eAE4187991e36373f9b6D95A48CD9f0F7eC3"
      ],
      "transaction": {
        "from": "0x8601a07385fbd135627373e9938d6b0fd92aeee1",
        "to": "0xa0a27a0fd9cc05fa45caaea35e22f4ad2a65c9b6",
        "gas": "0xe289",
        "value": "0x0",
        "input": "0xf2fde38b00000000000000000000000015c1eae4187991e36373f9b6d95a48cd9f0f7ec3",
        "nonce": "0x4e",
        "chainId": "0xa4b1"
      },
      "additionalContracts": [],
      "isFixedGasLimit": false
    },
    {
      "hash": null,
      "transactionType": "CALL",
      "contractName": null,
      "contractAddress": "0xae1649d7ecc9e50d9b406764d08b7dd498223888",
      "function": "transferOwnership(address)",
      "arguments": [
        "0x15c1eAE4187991e36373f9b6D95A48CD9f0F7eC3"
      ],
      "transaction": {
        "from": "0x8601a07385fbd135627373e9938d6b0fd92aeee1",
        "to": "0xae1649d7ecc9e50d9b406764d08b7dd498223888",
        "gas": "0xe289",
        "value": "0x0",
        "input": "0xf2fde38b00000000000000000000000015c1eae4187991e36373f9b6d95a48cd9f0f7ec3",
        "nonce": "0x4f",
        "chainId": "0xa4b1"
      },
      "additionalContracts": [],
      "isFixedGasLimit": false
    },
    {
      "hash": null,
      "transactionType": "CALL",
      "contractName": null,
      "contractAddress": "0xf0f213811716b54b853879b4452a664c5f2c9841",
      "function": "transferOwnership(address)",
      "arguments": [
        "0x15c1eAE4187991e36373f9b6D95A48CD9f0F7eC3"
      ],
      "transaction": {
        "from": "0x8601a07385fbd135627373e9938d6b0fd92aeee1",
        "to": "0xf0f213811716b54b853879b4452a664c5f2c9841",
        "gas": "0xe289",
        "value": "0x0",
        "input": "0xf2fde38b00000000000000000000000015c1eae4187991e36373f9b6d95a48cd9f0f7ec3",
        "nonce": "0x50",
        "chainId": "0xa4b1"
      },
      "additionalContracts": [],
      "isFixedGasLimit": false
    },
    {
      "hash": null,
      "transactionType": "CALL",
      "contractName": null,
      "contractAddress": "0xaa6064f30d9f8f2cd726ed1da571a2bf69d21e90",
      "function": "transferOwnership(address)",
      "arguments": [
        "0x15c1eAE4187991e36373f9b6D95A48CD9f0F7eC3"
      ],
      "transaction": {
        "from": "0x8601a07385fbd135627373e9938d6b0fd92aeee1",
        "to": "0xaa6064f30d9f8f2cd726ed1da571a2bf69d21e90",
        "gas": "0xe289",
        "value": "0x0",
        "input": "0xf2fde38b00000000000000000000000015c1eae4187991e36373f9b6d95a48cd9f0f7ec3",
        "nonce": "0x51",
        "chainId": "0xa4b1"
      },
      "additionalContracts": [],
      "isFixedGasLimit": false
    },
    {
      "hash": null,
      "transactionType": "CALL",
      "contractName": null,
      "contractAddress": "0x58079a217066c6994982d185236b012e591a3ce8",
      "function": "transferOwnership(address)",
      "arguments": [
        "0x15c1eAE4187991e36373f9b6D95A48CD9f0F7eC3"
      ],
      "transaction": {
        "from": "0x8601a07385fbd135627373e9938d6b0fd92aeee1",
        "to": "0x58079a217066c6994982d185236b012e591a3ce8",
        "gas": "0xe289",
        "value": "0x0",
        "input": "0xf2fde38b00000000000000000000000015c1eae4187991e36373f9b6d95a48cd9f0f7ec3",
        "nonce": "0x52",
        "chainId": "0xa4b1"
      },
      "additionalContracts": [],
      "isFixedGasLimit": false
    },
    {
      "hash": null,
      "transactionType": "CALL",
      "contractName": null,
      "contractAddress": "0x2e8d9c70cd7f49049481de6d3b47a9be9bff8a85",
      "function": "transferOwnership(address)",
      "arguments": [
        "0x15c1eAE4187991e36373f9b6D95A48CD9f0F7eC3"
      ],
      "transaction": {
        "from": "0x8601a07385fbd135627373e9938d6b0fd92aeee1",
        "to": "0x2e8d9c70cd7f49049481de6d3b47a9be9bff8a85",
        "gas": "0xe289",
        "value": "0x0",
        "input": "0xf2fde38b00000000000000000000000015c1eae4187991e36373f9b6d95a48cd9f0f7ec3",
        "nonce": "0x53",
        "chainId": "0xa4b1"
      },
      "additionalContracts": [],
      "isFixedGasLimit": false
    },
    {
      "hash": null,
      "transactionType": "CALL",
      "contractName": null,
      "contractAddress": "0xba89a09ef8b38227c358aa50bfafc4f1cb7629f3",
      "function": "transferOwnership(address)",
      "arguments": [
        "0x15c1eAE4187991e36373f9b6D95A48CD9f0F7eC3"
      ],
      "transaction": {
        "from": "0x8601a07385fbd135627373e9938d6b0fd92aeee1",
        "to": "0xba89a09ef8b38227c358aa50bfafc4f1cb7629f3",
        "gas": "0xe289",
        "value": "0x0",
        "input": "0xf2fde38b00000000000000000000000015c1eae4187991e36373f9b6d95a48cd9f0f7ec3",
        "nonce": "0x54",
        "chainId": "0xa4b1"
      },
      "additionalContracts": [],
      "isFixedGasLimit": false
    },
    {
      "hash": null,
      "transactionType": "CALL",
      "contractName": null,
      "contractAddress": "0xce72471332c1688dce1cf6976bd988093eb09323",
      "function": "transferOwnership(address)",
      "arguments": [
        "0x15c1eAE4187991e36373f9b6D95A48CD9f0F7eC3"
      ],
      "transaction": {
        "from": "0x8601a07385fbd135627373e9938d6b0fd92aeee1",
        "to": "0xce72471332c1688dce1cf6976bd988093eb09323",
        "gas": "0xe289",
        "value": "0x0",
        "input": "0xf2fde38b00000000000000000000000015c1eae4187991e36373f9b6d95a48cd9f0f7ec3",
        "nonce": "0x55",
        "chainId": "0xa4b1"
      },
      "additionalContracts": [],
      "isFixedGasLimit": false
    },
    {
      "hash": null,
      "transactionType": "CALL",
      "contractName": null,
      "contractAddress": "0x641d0d7297d694e15e4f9e7415f1c75fa84f2e8b",
      "function": "transferOwnership(address)",
      "arguments": [
        "0x15c1eAE4187991e36373f9b6D95A48CD9f0F7eC3"
      ],
      "transaction": {
        "from": "0x8601a07385fbd135627373e9938d6b0fd92aeee1",
        "to": "0x641d0d7297d694e15e4f9e7415f1c75fa84f2e8b",
        "gas": "0xe289",
        "value": "0x0",
        "input": "0xf2fde38b00000000000000000000000015c1eae4187991e36373f9b6d95a48cd9f0f7ec3",
        "nonce": "0x56",
        "chainId": "0xa4b1"
      },
      "additionalContracts": [],
      "isFixedGasLimit": false
    },
    {
      "hash": null,
      "transactionType": "CALL",
      "contractName": null,
      "contractAddress": "0xa5c9bcff57e875384226ad7c9a37c9459ead7915",
      "function": "transferOwnership(address)",
      "arguments": [
        "0x15c1eAE4187991e36373f9b6D95A48CD9f0F7eC3"
      ],
      "transaction": {
        "from": "0x8601a07385fbd135627373e9938d6b0fd92aeee1",
        "to": "0xa5c9bcff57e875384226ad7c9a37c9459ead7915",
        "gas": "0xe289",
        "value": "0x0",
        "input": "0xf2fde38b00000000000000000000000015c1eae4187991e36373f9b6d95a48cd9f0f7ec3",
        "nonce": "0x57",
        "chainId": "0xa4b1"
      },
      "additionalContracts": [],
      "isFixedGasLimit": false
    },
    {
      "hash": null,
      "transactionType": "CALL",
      "contractName": null,
      "contractAddress": "0xc5f17e291029da8dbcb4882c76197c50cd932b45",
      "function": "transferOwnership(address)",
      "arguments": [
        "0x15c1eAE4187991e36373f9b6D95A48CD9f0F7eC3"
      ],
      "transaction": {
        "from": "0x8601a07385fbd135627373e9938d6b0fd92aeee1",
        "to": "0xc5f17e291029da8dbcb4882c76197c50cd932b45",
        "gas": "0xe289",
        "value": "0x0",
        "input": "0xf2fde38b00000000000000000000000015c1eae4187991e36373f9b6d95a48cd9f0f7ec3",
        "nonce": "0x58",
        "chainId": "0xa4b1"
      },
      "additionalContracts": [],
      "isFixedGasLimit": false
    },
    {
      "hash": null,
      "transactionType": "CALL",
      "contractName": null,
      "contractAddress": "0x2acc05ce9ad776cde138e294d6b9a410f368f4d6",
      "function": "transferOwnership(address)",
      "arguments": [
        "0x15c1eAE4187991e36373f9b6D95A48CD9f0F7eC3"
      ],
      "transaction": {
        "from": "0x8601a07385fbd135627373e9938d6b0fd92aeee1",
        "to": "0x2acc05ce9ad776cde138e294d6b9a410f368f4d6",
        "gas": "0xe289",
        "value": "0x0",
        "input": "0xf2fde38b00000000000000000000000015c1eae4187991e36373f9b6d95a48cd9f0f7ec3",
        "nonce": "0x59",
        "chainId": "0xa4b1"
      },
      "additionalContracts": [],
      "isFixedGasLimit": false
    }
  ],
  "receipts": [],
  "libraries": [],
  "pending": [],
  "returns": {},
  "timestamp": 1744376563,
  "chain": 42161,
  "commit": "3f2c649"
}