{
  "transactions": [
    {
      "hash": null,
      "transactionType": "CALL",
      "contractName": null,
      "contractAddress": "0x275483017f0464dd4ba87db9d0dd6a01ffb9b540",
      "function": "transferOwnership(address)",
      "arguments": [
        "0xDb779a06F0430DE0e8a9Bd64dE3448Db8cccb4FE"
      ],
      "transaction": {
        "from": "0x8601a07385fbd135627373e9938d6b0fd92aeee1",
        "to": "0x275483017f0464dd4ba87db9d0dd6a01ffb9b540",
        "gas": "0xa387",
        "value": "0x0",
        "input": "0xf2fde38b000000000000000000000000db779a06f0430de0e8a9bd64de3448db8cccb4fe",
        "nonce": "0x40",
        "chainId": "0x8173"
      },
      "additionalContracts": [],
      "isFixedGasLimit": false
    },
    {
      "hash": null,
      "transactionType": "CALL",
      "contractName": null,
      "contractAddress": "0xae1f6e1a2c6ebaa1972d4e3af6f8b7c396777a86",
      "function": "transferOwnership(address)",
      "arguments": [
        "0xDb779a06F0430DE0e8a9Bd64dE3448Db8cccb4FE"
      ],
      "transaction": {
        "from": "0x8601a07385fbd135627373e9938d6b0fd92aeee1",
        "to": "0xae1f6e1a2c6ebaa1972d4e3af6f8b7c396777a86",
        "gas": "0xa387",
        "value": "0x0",
        "input": "0xf2fde38b000000000000000000000000db779a06f0430de0e8a9bd64de3448db8cccb4fe",
        "nonce": "0x41",
        "chainId": "0x8173"
      },
      "additionalContracts": [],
      "isFixedGasLimit": false
    },
    {
      "hash": null,
      "transactionType": "CALL",
      "contractName": null,
      "contractAddress": "0xa0f9f578c74aa4d6fedf9f9c2669a555391a9036",
      "function": "transferOwnership(address)",
      "arguments": [
        "0xDb779a06F0430DE0e8a9Bd64dE3448Db8cccb4FE"
      ],
      "transaction": {
        "from": "0x8601a07385fbd135627373e9938d6b0fd92aeee1",
        "to": "0xa0f9f578c74aa4d6fedf9f9c2669a555391a9036",
        "gas": "0xa387",
        "value": "0x0",
        "input": "0xf2fde38b000000000000000000000000db779a06f0430de0e8a9bd64de3448db8cccb4fe",
        "nonce": "0x42",
        "chainId": "0x8173"
      },
      "additionalContracts": [],
      "isFixedGasLimit": false
    },
    {
      "hash": null,
      "transactionType": "CALL",
      "contractName": null,
      "contractAddress": "0xa56a68b8f26007773579671db5aba646c6216985",
      "function": "transferOwnership(address)",
      "arguments": [
        "0xDb779a06F0430DE0e8a9Bd64dE3448Db8cccb4FE"
      ],
      "transaction": {
        "from": "0x8601a07385fbd135627373e9938d6b0fd92aeee1",
        "to": "0xa56a68b8f26007773579671db5aba646c6216985",
        "gas": "0xa387",
        "value": "0x0",
        "input": "0xf2fde38b000000000000000000000000db779a06f0430de0e8a9bd64de3448db8cccb4fe",
        "nonce": "0x43",
        "chainId": "0x8173"
      },
      "additionalContracts": [],
      "isFixedGasLimit": false
    },
    {
      "hash": null,
      "transactionType": "CALL",
      "contractName": null,
      "contractAddress": "0xfd28a1300e25eb3b31d7e30aa5c7292638b4c27d",
      "function": "transferOwnership(address)",
      "arguments": [
        "0xDb779a06F0430DE0e8a9Bd64dE3448Db8cccb4FE"
      ],
      "transaction": {
        "from": "0x8601a07385fbd135627373e9938d6b0fd92aeee1",
        "to": "0xfd28a1300e25eb3b31d7e30aa5c7292638b4c27d",
        "gas": "0xa387",
        "value": "0x0",
        "input": "0xf2fde38b000000000000000000000000db779a06f0430de0e8a9bd64de3448db8cccb4fe",
        "nonce": "0x44",
        "chainId": "0x8173"
      },
      "additionalContracts": [],
      "isFixedGasLimit": false
    },
    {
      "hash": null,
      "transactionType": "CALL",
      "contractName": null,
      "contractAddress": "0xa3812813f380d585b24feba41c7bb6df2aca663b",
      "function": "transferOwnership(address)",
      "arguments": [
        "0xDb779a06F0430DE0e8a9Bd64dE3448Db8cccb4FE"
      ],
      "transaction": {
        "from": "0x8601a07385fbd135627373e9938d6b0fd92aeee1",
        "to": "0xa3812813f380d585b24feba41c7bb6df2aca663b",
        "gas": "0xa387",
        "value": "0x0",
        "input": "0xf2fde38b000000000000000000000000db779a06f0430de0e8a9bd64de3448db8cccb4fe",
        "nonce": "0x45",
        "chainId": "0x8173"
      },
      "additionalContracts": [],
      "isFixedGasLimit": false
    },
    {
      "hash": null,
      "transactionType": "CALL",
      "contractName": null,
      "contractAddress": "0xd07bde8d826bbd1617e901b894ed6ce8838fbce1",
      "function": "transferOwnership(address)",
      "arguments": [
        "0xDb779a06F0430DE0e8a9Bd64dE3448Db8cccb4FE"
      ],
      "transaction": {
        "from": "0x8601a07385fbd135627373e9938d6b0fd92aeee1",
        "to": "0xd07bde8d826bbd1617e901b894ed6ce8838fbce1",
        "gas": "0xa387",
        "value": "0x0",
        "input": "0xf2fde38b000000000000000000000000db779a06f0430de0e8a9bd64de3448db8cccb4fe",
        "nonce": "0x46",
        "chainId": "0x8173"
      },
      "additionalContracts": [],
      "isFixedGasLimit": false
    },
    {
      "hash": null,
      "transactionType": "CALL",
      "contractName": null,
      "contractAddress": "0xe968be46a3e911bcfeb53aba9fc9dd26045b2f6f",
      "function": "transferOwnership(address)",
      "arguments": [
        "0xDb779a06F0430DE0e8a9Bd64dE3448Db8cccb4FE"
      ],
      "transaction": {
        "from": "0x8601a07385fbd135627373e9938d6b0fd92aeee1",
        "to": "0xe968be46a3e911bcfeb53aba9fc9dd26045b2f6f",
        "gas": "0xa387",
        "value": "0x0",
        "input": "0xf2fde38b000000000000000000000000db779a06f0430de0e8a9bd64de3448db8cccb4fe",
        "nonce": "0x47",
        "chainId": "0x8173"
      },
      "additionalContracts": [],
      "isFixedGasLimit": false
    },
    {
      "hash": null,
      "transactionType": "CALL",
      "contractName": null,
      "contractAddress": "0x4a7d14283e864f1b6ad5d54d700a78dea90d0aca",
      "function": "transferOwnership(address)",
      "arguments": [
        "0xDb779a06F0430DE0e8a9Bd64dE3448Db8cccb4FE"
      ],
      "transaction": {
        "from": "0x8601a07385fbd135627373e9938d6b0fd92aeee1",
        "to": "0x4a7d14283e864f1b6ad5d54d700a78dea90d0aca",
        "gas": "0xa387",
        "value": "0x0",
        "input": "0xf2fde38b000000000000000000000000db779a06f0430de0e8a9bd64de3448db8cccb4fe",
        "nonce": "0x48",
        "chainId": "0x8173"
      },
      "additionalContracts": [],
      "isFixedGasLimit": false
    },
    {
      "hash": null,
      "transactionType": "CALL",
      "contractName": null,
      "contractAddress": "0xb9b67bbc42b1ac69375d6d99a23c27b88a74ffc4",
      "function": "transferOwnership(address)",
      "arguments": [
        "0xDb779a06F0430DE0e8a9Bd64dE3448Db8cccb4FE"
      ],
      "transaction": {
        "from": "0x8601a07385fbd135627373e9938d6b0fd92aeee1",
        "to": "0xb9b67bbc42b1ac69375d6d99a23c27b88a74ffc4",
        "gas": "0xa387",
        "value": "0x0",
        "input": "0xf2fde38b000000000000000000000000db779a06f0430de0e8a9bd64de3448db8cccb4fe",
        "nonce": "0x49",
        "chainId": "0x8173"
      },
      "additionalContracts": [],
      "isFixedGasLimit": false
    },
    {
      "hash": null,
      "transactionType": "CALL",
      "contractName": null,
      "contractAddress": "0xd283d242b15ce67f966e4a3c78edc03b679216bb",
      "function": "transferOwnership(address)",
      "arguments": [
        "0xDb779a06F0430DE0e8a9Bd64dE3448Db8cccb4FE"
      ],
      "transaction": {
        "from": "0x8601a07385fbd135627373e9938d6b0fd92aeee1",
        "to": "0xd283d242b15ce67f966e4a3c78edc03b679216bb",
        "gas": "0xa387",
        "value": "0x0",
        "input": "0xf2fde38b000000000000000000000000db779a06f0430de0e8a9bd64de3448db8cccb4fe",
        "nonce": "0x4a",
        "chainId": "0x8173"
      },
      "additionalContracts": [],
      "isFixedGasLimit": false
    },
    {
      "hash": null,
      "transactionType": "CALL",
      "contractName": null,
      "contractAddress": "0xe3d278f15849b2e0f3978235015bd76d8861ad15",
      "function": "transferOwnership(address)",
      "arguments": [
        "0xDb779a06F0430DE0e8a9Bd64dE3448Db8cccb4FE"
      ],
      "transaction": {
        "from": "0x8601a07385fbd135627373e9938d6b0fd92aeee1",
        "to": "0xe3d278f15849b2e0f3978235015bd76d8861ad15",
        "gas": "0xa387",
        "value": "0x0",
        "input": "0xf2fde38b000000000000000000000000db779a06f0430de0e8a9bd64de3448db8cccb4fe",
        "nonce": "0x4b",
        "chainId": "0x8173"
      },
      "additionalContracts": [],
      "isFixedGasLimit": false
    }
  ],
  "receipts": [],
  "libraries": [],
  "pending": [],
  "returns": {},
  "timestamp": 1744374830,
  "chain": 33139,
  "commit": "3f2c649"
}