{
  "transactions": [
    {
      "hash": null,
      "transactionType": "CALL",
      "contractName": null,
      "contractAddress": "0x2c927e0a331a621c678ba832a5f198f1a03bfa7b",
      "function": "transferOwnership(address)",
      "arguments": [
        "0x15c1eAE4187991e36373f9b6D95A48CD9f0F7eC3"
      ],
      "transaction": {
        "from": "0x8601a07385fbd135627373e9938d6b0fd92aeee1",
        "to": "0x2c927e0a331a621c678ba832a5f198f1a03bfa7b",
        "gas": "0xa387",
        "value": "0x0",
        "input": "0xf2fde38b00000000000000000000000015c1eae4187991e36373f9b6d95a48cd9f0f7ec3",
        "nonce": "0x4b",
        "chainId": "0x2105"
      },
      "additionalContracts": [],
      "isFixedGasLimit": false
    },
    {
      "hash": null,
      "transactionType": "CALL",
      "contractName": null,
      "contractAddress": "0xa0f5fc7f9e9069028a7c3c61eb2249df7ac71a8f",
      "function": "transferOwnership(address)",
      "arguments": [
        "0x15c1eAE4187991e36373f9b6D95A48CD9f0F7eC3"
      ],
      "transaction": {
        "from": "0x8601a07385fbd135627373e9938d6b0fd92aeee1",
        "to": "0xa0f5fc7f9e9069028a7c3c61eb2249df7ac71a8f",
        "gas": "0xa387",
        "value": "0x0",
        "input": "0xf2fde38b00000000000000000000000015c1eae4187991e36373f9b6d95a48cd9f0f7ec3",
        "nonce": "0x4c",
        "chainId": "0x2105"
      },
      "additionalContracts": [],
      "isFixedGasLimit": false
    },
    {
      "hash": null,
      "transactionType": "CALL",
      "contractName": null,
      "contractAddress": "0x54afd5d64a6e222364bddea2cde959ae02854ecd",
      "function": "transferOwnership(address)",
      "arguments": [
        "0x15c1eAE4187991e36373f9b6D95A48CD9f0F7eC3"
      ],
      "transaction": {
        "from": "0x8601a07385fbd135627373e9938d6b0fd92aeee1",
        "to": "0x54afd5d64a6e222364bddea2cde959ae02854ecd",
        "gas": "0xa387",
        "value": "0x0",
        "input": "0xf2fde38b00000000000000000000000015c1eae4187991e36373f9b6d95a48cd9f0f7ec3",
        "nonce": "0x4d",
        "chainId": "0x2105"
      },
      "additionalContracts": [],
      "isFixedGasLimit": false
    },
    {
      "hash": null,
      "transactionType": "CALL",
      "contractName": null,
      "contractAddress": "0x1986ac524c44b00801d33f09cd71deebe225a2ff",
      "function": "transferOwnership(address)",
      "arguments": [
        "0x15c1eAE4187991e36373f9b6D95A48CD9f0F7eC3"
      ],
      "transaction": {
        "from": "0x8601a07385fbd135627373e9938d6b0fd92aeee1",
        "to": "0x1986ac524c44b00801d33f09cd71deebe225a2ff",
        "gas": "0xa387",
        "value": "0x0",
        "input": "0xf2fde38b00000000000000000000000015c1eae4187991e36373f9b6d95a48cd9f0f7ec3",
        "nonce": "0x4e",
        "chainId": "0x2105"
      },
      "additionalContracts": [],
      "isFixedGasLimit": false
    },
    {
      "hash": null,
      "transactionType": "CALL",
      "contractName": null,
      "contractAddress": "0x8e74823f08ae984948fe2312bdf2f1919fe2749c",
      "function": "transferOwnership(address)",
      "arguments": [
        "0x15c1eAE4187991e36373f9b6D95A48CD9f0F7eC3"
      ],
      "transaction": {
        "from": "0x8601a07385fbd135627373e9938d6b0fd92aeee1",
        "to": "0x8e74823f08ae984948fe2312bdf2f1919fe2749c",
        "gas": "0xa387",
        "value": "0x0",
        "input": "0xf2fde38b00000000000000000000000015c1eae4187991e36373f9b6d95a48cd9f0f7ec3",
        "nonce": "0x4f",
        "chainId": "0x2105"
      },
      "additionalContracts": [],
      "isFixedGasLimit": false
    },
    {
      "hash": null,
      "transactionType": "CALL",
      "contractName": null,
      "contractAddress": "0x5143773028453de6372d9c1bdd363f8088a3252f",
      "function": "transferOwnership(address)",
      "arguments": [
        "0x15c1eAE4187991e36373f9b6D95A48CD9f0F7eC3"
      ],
      "transaction": {
        "from": "0x8601a07385fbd135627373e9938d6b0fd92aeee1",
        "to": "0x5143773028453de6372d9c1bdd363f8088a3252f",
        "gas": "0xa387",
        "value": "0x0",
        "input": "0xf2fde38b00000000000000000000000015c1eae4187991e36373f9b6d95a48cd9f0f7ec3",
        "nonce": "0x50",
        "chainId": "0x2105"
      },
      "additionalContracts": [],
      "isFixedGasLimit": false
    },
    {
      "hash": null,
      "transactionType": "CALL",
      "contractName": null,
      "contractAddress": "0x0ba556bf0ad91aa4730cf77a235ca1c3fa4e9aca",
      "function": "transferOwnership(address)",
      "arguments": [
        "0x15c1eAE4187991e36373f9b6D95A48CD9f0F7eC3"
      ],
      "transaction": {
        "from": "0x8601a07385fbd135627373e9938d6b0fd92aeee1",
        "to": "0x0ba556bf0ad91aa4730cf77a235ca1c3fa4e9aca",
        "gas": "0xa387",
        "value": "0x0",
        "input": "0xf2fde38b00000000000000000000000015c1eae4187991e36373f9b6d95a48cd9f0f7ec3",
        "nonce": "0x51",
        "chainId": "0x2105"
      },
      "additionalContracts": [],
      "isFixedGasLimit": false
    },
    {
      "hash": null,
      "transactionType": "CALL",
      "contractName": null,
      "contractAddress": "0x8fd891b12ab5a9abd8be3cf4aac9425dcf53d73c",
      "function": "transferOwnership(address)",
      "arguments": [
        "0x15c1eAE4187991e36373f9b6D95A48CD9f0F7eC3"
      ],
      "transaction": {
        "from": "0x8601a07385fbd135627373e9938d6b0fd92aeee1",
        "to": "0x8fd891b12ab5a9abd8be3cf4aac9425dcf53d73c",
        "gas": "0xa387",
        "value": "0x0",
        "input": "0xf2fde38b00000000000000000000000015c1eae4187991e36373f9b6d95a48cd9f0f7ec3",
        "nonce": "0x52",
        "chainId": "0x2105"
      },
      "additionalContracts": [],
      "isFixedGasLimit": false
    },
    {
      "hash": null,
      "transactionType": "CALL",
      "contractName": null,
      "contractAddress": "0x1b39ff9f02b6854d3fbcd4b1b85f9589ae71c9a1",
      "function": "transferOwnership(address)",
      "arguments": [
        "0x15c1eAE4187991e36373f9b6D95A48CD9f0F7eC3"
      ],
      "transaction": {
        "from": "0x8601a07385fbd135627373e9938d6b0fd92aeee1",
        "to": "0x1b39ff9f02b6854d3fbcd4b1b85f9589ae71c9a1",
        "gas": "0xa387",
        "value": "0x0",
        "input": "0xf2fde38b00000000000000000000000015c1eae4187991e36373f9b6d95a48cd9f0f7ec3",
        "nonce": "0x53",
        "chainId": "0x2105"
      },
      "additionalContracts": [],
      "isFixedGasLimit": false
    },
    {
      "hash": null,
      "transactionType": "CALL",
      "contractName": null,
      "contractAddress": "0x36ae94302cd347e837573d8953ca99dd3bee1b29",
      "function": "transferOwnership(address)",
      "arguments": [
        "0x15c1eAE4187991e36373f9b6D95A48CD9f0F7eC3"
      ],
      "transaction": {
        "from": "0x8601a07385fbd135627373e9938d6b0fd92aeee1",
        "to": "0x36ae94302cd347e837573d8953ca99dd3bee1b29",
        "gas": "0xa387",
        "value": "0x0",
        "input": "0xf2fde38b00000000000000000000000015c1eae4187991e36373f9b6d95a48cd9f0f7ec3",
        "nonce": "0x54",
        "chainId": "0x2105"
      },
      "additionalContracts": [],
      "isFixedGasLimit": false
    },
    {
      "hash": null,
      "transactionType": "CALL",
      "contractName": null,
      "contractAddress": "0x1a537caa265a47feecef717cf35a64f9213d30b7",
      "function": "transferOwnership(address)",
      "arguments": [
        "0x15c1eAE4187991e36373f9b6D95A48CD9f0F7eC3"
      ],
      "transaction": {
        "from": "0x8601a07385fbd135627373e9938d6b0fd92aeee1",
        "to": "0x1a537caa265a47feecef717cf35a64f9213d30b7",
        "gas": "0xa387",
        "value": "0x0",
        "input": "0xf2fde38b00000000000000000000000015c1eae4187991e36373f9b6d95a48cd9f0f7ec3",
        "nonce": "0x55",
        "chainId": "0x2105"
      },
      "additionalContracts": [],
      "isFixedGasLimit": false
    },
    {
      "hash": null,
      "transactionType": "CALL",
      "contractName": null,
      "contractAddress": "0x6982a115e27a14d18b57b370036b1d16e4a33275",
      "function": "transferOwnership(address)",
      "arguments": [
        "0x15c1eAE4187991e36373f9b6D95A48CD9f0F7eC3"
      ],
      "transaction": {
        "from": "0x8601a07385fbd135627373e9938d6b0fd92aeee1",
        "to": "0x6982a115e27a14d18b57b370036b1d16e4a33275",
        "gas": "0xa387",
        "value": "0x0",
        "input": "0xf2fde38b00000000000000000000000015c1eae4187991e36373f9b6d95a48cd9f0f7ec3",
        "nonce": "0x56",
        "chainId": "0x2105"
      },
      "additionalContracts": [],
      "isFixedGasLimit": false
    }
  ],
  "receipts": [],
  "libraries": [],
  "pending": [],
  "returns": {},
  "timestamp": 1744376783,
  "chain": 8453,
  "commit": "3f2c649"
}