{
  "transactions": [
    {
      "hash": null,
      "transactionType": "CALL",
      "contractName": null,
      "contractAddress": "0xf220e1c4567daf66932e08dd72eb0c1a57422fec",
      "function": "transferOwnership(address)",
      "arguments": [
        "0xDb779a06F0430DE0e8a9Bd64dE3448Db8cccb4FE"
      ],
      "transaction": {
        "from": "0x8affbdec195700db11465733146c708af538c0ed",
        "to": "0xf220e1c4567daf66932e08dd72eb0c1a57422fec",
        "gas": "0x931f",
        "value": "0x0",
        "input": "0xf2fde38b000000000000000000000000db779a06f0430de0e8a9bd64de3448db8cccb4fe",
        "nonce": "0xa1",
        "chainId": "0x66eee"
      },
      "additionalContracts": [],
      "isFixedGasLimit": false
    },
    {
      "hash": null,
      "transactionType": "CALL",
      "contractName": null,
      "contractAddress": "0x0cbb247f8a73046d6d4b6ca7e6904525509dc767",
      "function": "transferOwnership(address)",
      "arguments": [
        "0xDb779a06F0430DE0e8a9Bd64dE3448Db8cccb4FE"
      ],
      "transaction": {
        "from": "0x8affbdec195700db11465733146c708af538c0ed",
        "to": "0x0cbb247f8a73046d6d4b6ca7e6904525509dc767",
        "gas": "0x931f",
        "value": "0x0",
        "input": "0xf2fde38b000000000000000000000000db779a06f0430de0e8a9bd64de3448db8cccb4fe",
        "nonce": "0xa2",
        "chainId": "0x66eee"
      },
      "additionalContracts": [],
      "isFixedGasLimit": false
    },
    {
      "hash": null,
      "transactionType": "CALL",
      "contractName": null,
      "contractAddress": "0xb69cbeeca571eade03dddcdd5361e2bc08545add",
      "function": "transferOwnership(address)",
      "arguments": [
        "0xDb779a06F0430DE0e8a9Bd64dE3448Db8cccb4FE"
      ],
      "transaction": {
        "from": "0x8affbdec195700db11465733146c708af538c0ed",
        "to": "0xb69cbeeca571eade03dddcdd5361e2bc08545add",
        "gas": "0x931f",
        "value": "0x0",
        "input": "0xf2fde38b000000000000000000000000db779a06f0430de0e8a9bd64de3448db8cccb4fe",
        "nonce": "0xa3",
        "chainId": "0x66eee"
      },
      "additionalContracts": [],
      "isFixedGasLimit": false
    },
    {
      "hash": null,
      "transactionType": "CALL",
      "contractName": null,
      "contractAddress": "0x9ba3e9554aaf1d1f89d7e2f827baff8dd889b30d",
      "function": "transferOwnership(address)",
      "arguments": [
        "0xDb779a06F0430DE0e8a9Bd64dE3448Db8cccb4FE"
      ],
      "transaction": {
        "from": "0x8affbdec195700db11465733146c708af538c0ed",
        "to": "0x9ba3e9554aaf1d1f89d7e2f827baff8dd889b30d",
        "gas": "0x931f",
        "value": "0x0",
        "input": "0xf2fde38b000000000000000000000000db779a06f0430de0e8a9bd64de3448db8cccb4fe",
        "nonce": "0xa4",
        "chainId": "0x66eee"
      },
      "additionalContracts": [],
      "isFixedGasLimit": false
    },
    {
      "hash": null,
      "transactionType": "CALL",
      "contractName": null,
      "contractAddress": "0x2427e2bf62963361dc96b78527ff7b8b56d0b8f4",
      "function": "transferOwnership(address)",
      "arguments": [
        "0xDb779a06F0430DE0e8a9Bd64dE3448Db8cccb4FE"
      ],
      "transaction": {
        "from": "0x8affbdec195700db11465733146c708af538c0ed",
        "to": "0x2427e2bf62963361dc96b78527ff7b8b56d0b8f4",
        "gas": "0x931f",
        "value": "0x0",
        "input": "0xf2fde38b000000000000000000000000db779a06f0430de0e8a9bd64de3448db8cccb4fe",
        "nonce": "0xa5",
        "chainId": "0x66eee"
      },
      "additionalContracts": [],
      "isFixedGasLimit": false
    },
    {
      "hash": null,
      "transactionType": "CALL",
      "contractName": null,
      "contractAddress": "0x851083e8aa20fb73c9d03870b5880c6ce8091fb0",
      "function": "transferOwnership(address)",
      "arguments": [
        "0xDb779a06F0430DE0e8a9Bd64dE3448Db8cccb4FE"
      ],
      "transaction": {
        "from": "0x8affbdec195700db11465733146c708af538c0ed",
        "to": "0x851083e8aa20fb73c9d03870b5880c6ce8091fb0",
        "gas": "0x931f",
        "value": "0x0",
        "input": "0xf2fde38b000000000000000000000000db779a06f0430de0e8a9bd64de3448db8cccb4fe",
        "nonce": "0xa6",
        "chainId": "0x66eee"
      },
      "additionalContracts": [],
      "isFixedGasLimit": false
    },
    {
      "hash": null,
      "transactionType": "CALL",
      "contractName": null,
      "contractAddress": "0xb3317e0decd54ec76af5c9e068c6e3b363270db1",
      "function": "transferOwnership(address)",
      "arguments": [
        "0xDb779a06F0430DE0e8a9Bd64dE3448Db8cccb4FE"
      ],
      "transaction": {
        "from": "0x8affbdec195700db11465733146c708af538c0ed",
        "to": "0xb3317e0decd54ec76af5c9e068c6e3b363270db1",
        "gas": "0x931f",
        "value": "0x0",
        "input": "0xf2fde38b000000000000000000000000db779a06f0430de0e8a9bd64de3448db8cccb4fe",
        "nonce": "0xa7",
        "chainId": "0x66eee"
      },
      "additionalContracts": [],
      "isFixedGasLimit": false
    },
    {
      "hash": null,
      "transactionType": "CALL",
      "contractName": null,
      "contractAddress": "0xf0d0af70767618d1ca70568a29c56859c485eccd",
      "function": "transferOwnership(address)",
      "arguments": [
        "0xDb779a06F0430DE0e8a9Bd64dE3448Db8cccb4FE"
      ],
      "transaction": {
        "from": "0x8affbdec195700db11465733146c708af538c0ed",
        "to": "0xf0d0af70767618d1ca70568a29c56859c485eccd",
        "gas": "0x931f",
        "value": "0x0",
        "input": "0xf2fde38b000000000000000000000000db779a06f0430de0e8a9bd64de3448db8cccb4fe",
        "nonce": "0xa8",
        "chainId": "0x66eee"
      },
      "additionalContracts": [],
      "isFixedGasLimit": false
    },
    {
      "hash": null,
      "transactionType": "CALL",
      "contractName": null,
      "contractAddress": "0x817c22111ebf4c1316a10bb5b8865b9234c50803",
      "function": "transferOwnership(address)",
      "arguments": [
        "0xDb779a06F0430DE0e8a9Bd64dE3448Db8cccb4FE"
      ],
      "transaction": {
        "from": "0x8affbdec195700db11465733146c708af538c0ed",
        "to": "0x817c22111ebf4c1316a10bb5b8865b9234c50803",
        "gas": "0x931f",
        "value": "0x0",
        "input": "0xf2fde38b000000000000000000000000db779a06f0430de0e8a9bd64de3448db8cccb4fe",
        "nonce": "0xa9",
        "chainId": "0x66eee"
      },
      "additionalContracts": [],
      "isFixedGasLimit": false
    },
    {
      "hash": null,
      "transactionType": "CALL",
      "contractName": null,
      "contractAddress": "0xf49a6459e5f60ebf4dc2f4fe919704cfb8e71974",
      "function": "transferOwnership(address)",
      "arguments": [
        "0xDb779a06F0430DE0e8a9Bd64dE3448Db8cccb4FE"
      ],
      "transaction": {
        "from": "0x8affbdec195700db11465733146c708af538c0ed",
        "to": "0xf49a6459e5f60ebf4dc2f4fe919704cfb8e71974",
        "gas": "0x931f",
        "value": "0x0",
        "input": "0xf2fde38b000000000000000000000000db779a06f0430de0e8a9bd64de3448db8cccb4fe",
        "nonce": "0xaa",
        "chainId": "0x66eee"
      },
      "additionalContracts": [],
      "isFixedGasLimit": false
    },
    {
      "hash": null,
      "transactionType": "CALL",
      "contractName": null,
      "contractAddress": "0x1989ed1ecf4bb4e324c67928685bff4847a2fd8b",
      "function": "transferOwnership(address)",
      "arguments": [
        "0xDb779a06F0430DE0e8a9Bd64dE3448Db8cccb4FE"
      ],
      "transaction": {
        "from": "0x8affbdec195700db11465733146c708af538c0ed",
        "to": "0x1989ed1ecf4bb4e324c67928685bff4847a2fd8b",
        "gas": "0x931f",
        "value": "0x0",
        "input": "0xf2fde38b000000000000000000000000db779a06f0430de0e8a9bd64de3448db8cccb4fe",
        "nonce": "0xab",
        "chainId": "0x66eee"
      },
      "additionalContracts": [],
      "isFixedGasLimit": false
    },
    {
      "hash": null,
      "transactionType": "CALL",
      "contractName": null,
      "contractAddress": "0xc31941067b351582802943df07053439b05633d5",
      "function": "transferOwnership(address)",
      "arguments": [
        "0xDb779a06F0430DE0e8a9Bd64dE3448Db8cccb4FE"
      ],
      "transaction": {
        "from": "0x8affbdec195700db11465733146c708af538c0ed",
        "to": "0xc31941067b351582802943df07053439b05633d5",
        "gas": "0x931f",
        "value": "0x0",
        "input": "0xf2fde38b000000000000000000000000db779a06f0430de0e8a9bd64de3448db8cccb4fe",
        "nonce": "0xac",
        "chainId": "0x66eee"
      },
      "additionalContracts": [],
      "isFixedGasLimit": false
    },
    {
      "hash": null,
      "transactionType": "CALL",
      "contractName": null,
      "contractAddress": "0xbbe290da118ac3be60eb932a2c888306dc0b3df7",
      "function": "transferOwnership(address)",
      "arguments": [
        "0xDb779a06F0430DE0e8a9Bd64dE3448Db8cccb4FE"
      ],
      "transaction": {
        "from": "0x8affbdec195700db11465733146c708af538c0ed",
        "to": "0xbbe290da118ac3be60eb932a2c888306dc0b3df7",
        "gas": "0x931f",
        "value": "0x0",
        "input": "0xf2fde38b000000000000000000000000db779a06f0430de0e8a9bd64de3448db8cccb4fe",
        "nonce": "0xad",
        "chainId": "0x66eee"
      },
      "additionalContracts": [],
      "isFixedGasLimit": false
    },
    {
      "hash": null,
      "transactionType": "CALL",
      "contractName": null,
      "contractAddress": "0xcb962871c807fc0777881481436c2082046110f9",
      "function": "transferOwnership(address)",
      "arguments": [
        "0xDb779a06F0430DE0e8a9Bd64dE3448Db8cccb4FE"
      ],
      "transaction": {
        "from": "0x8affbdec195700db11465733146c708af538c0ed",
        "to": "0xcb962871c807fc0777881481436c2082046110f9",
        "gas": "0x931f",
        "value": "0x0",
        "input": "0xf2fde38b000000000000000000000000db779a06f0430de0e8a9bd64de3448db8cccb4fe",
        "nonce": "0xae",
        "chainId": "0x66eee"
      },
      "additionalContracts": [],
      "isFixedGasLimit": false
    },
    {
      "hash": null,
      "transactionType": "CALL",
      "contractName": null,
      "contractAddress": "0x4a713222a1f09d61974786b714bc6e13813d4169",
      "function": "transferOwnership(address)",
      "arguments": [
        "0xDb779a06F0430DE0e8a9Bd64dE3448Db8cccb4FE"
      ],
      "transaction": {
        "from": "0x8affbdec195700db11465733146c708af538c0ed",
        "to": "0x4a713222a1f09d61974786b714bc6e13813d4169",
        "gas": "0x931f",
        "value": "0x0",
        "input": "0xf2fde38b000000000000000000000000db779a06f0430de0e8a9bd64de3448db8cccb4fe",
        "nonce": "0xaf",
        "chainId": "0x66eee"
      },
      "additionalContracts": [],
      "isFixedGasLimit": false
    },
    {
      "hash": null,
      "transactionType": "CALL",
      "contractName": null,
      "contractAddress": "0x8e2f7ef37209a78828276688791a4be175b32fc3",
      "function": "transferOwnership(address)",
      "arguments": [
        "0xDb779a06F0430DE0e8a9Bd64dE3448Db8cccb4FE"
      ],
      "transaction": {
        "from": "0x8affbdec195700db11465733146c708af538c0ed",
        "to": "0x8e2f7ef37209a78828276688791a4be175b32fc3",
        "gas": "0x931f",
        "value": "0x0",
        "input": "0xf2fde38b000000000000000000000000db779a06f0430de0e8a9bd64de3448db8cccb4fe",
        "nonce": "0xb0",
        "chainId": "0x66eee"
      },
      "additionalContracts": [],
      "isFixedGasLimit": false
    },
    {
      "hash": null,
      "transactionType": "CALL",
      "contractName": null,
      "contractAddress": "0x1110d54ee1b3ba2b00e0c64f19bcbe901592557b",
      "function": "transferOwnership(address)",
      "arguments": [
        "0xDb779a06F0430DE0e8a9Bd64dE3448Db8cccb4FE"
      ],
      "transaction": {
        "from": "0x8affbdec195700db11465733146c708af538c0ed",
        "to": "0x1110d54ee1b3ba2b00e0c64f19bcbe901592557b",
        "gas": "0x931f",
        "value": "0x0",
        "input": "0xf2fde38b000000000000000000000000db779a06f0430de0e8a9bd64de3448db8cccb4fe",
        "nonce": "0xb1",
        "chainId": "0x66eee"
      },
      "additionalContracts": [],
      "isFixedGasLimit": false
    },
    {
      "hash": null,
      "transactionType": "CALL",
      "contractName": null,
      "contractAddress": "0x6fe66578620c45e4293896c638c3c1256a4ab158",
      "function": "transferOwnership(address)",
      "arguments": [
        "0xDb779a06F0430DE0e8a9Bd64dE3448Db8cccb4FE"
      ],
      "transaction": {
        "from": "0x8affbdec195700db11465733146c708af538c0ed",
        "to": "0x6fe66578620c45e4293896c638c3c1256a4ab158",
        "gas": "0x931f",
        "value": "0x0",
        "input": "0xf2fde38b000000000000000000000000db779a06f0430de0e8a9bd64de3448db8cccb4fe",
        "nonce": "0xb2",
        "chainId": "0x66eee"
      },
      "additionalContracts": [],
      "isFixedGasLimit": false
    },
    {
      "hash": null,
      "transactionType": "CALL",
      "contractName": null,
      "contractAddress": "0x7d51e5923c215ccd134d5004f89b1e8d07f3fe80",
      "function": "transferOwnership(address)",
      "arguments": [
        "0xDb779a06F0430DE0e8a9Bd64dE3448Db8cccb4FE"
      ],
      "transaction": {
        "from": "0x8affbdec195700db11465733146c708af538c0ed",
        "to": "0x7d51e5923c215ccd134d5004f89b1e8d07f3fe80",
        "gas": "0x931f",
        "value": "0x0",
        "input": "0xf2fde38b000000000000000000000000db779a06f0430de0e8a9bd64de3448db8cccb4fe",
        "nonce": "0xb3",
        "chainId": "0x66eee"
      },
      "additionalContracts": [],
      "isFixedGasLimit": false
    },
    {
      "hash": null,
      "transactionType": "CALL",
      "contractName": null,
      "contractAddress": "0x7d1f00e8652e7c2222c1f84b34cc0654603f9a16",
      "function": "transferOwnership(address)",
      "arguments": [
        "0xDb779a06F0430DE0e8a9Bd64dE3448Db8cccb4FE"
      ],
      "transaction": {
        "from": "0x8affbdec195700db11465733146c708af538c0ed",
        "to": "0x7d1f00e8652e7c2222c1f84b34cc0654603f9a16",
        "gas": "0x931f",
        "value": "0x0",
        "input": "0xf2fde38b000000000000000000000000db779a06f0430de0e8a9bd64de3448db8cccb4fe",
        "nonce": "0xb4",
        "chainId": "0x66eee"
      },
      "additionalContracts": [],
      "isFixedGasLimit": false
    },
    {
      "hash": null,
      "transactionType": "CALL",
      "contractName": null,
      "contractAddress": "0xea75da676f9440eaff710d45a1c9f9eaa18ae2ee",
      "function": "transferOwnership(address)",
      "arguments": [
        "0xDb779a06F0430DE0e8a9Bd64dE3448Db8cccb4FE"
      ],
      "transaction": {
        "from": "0x8affbdec195700db11465733146c708af538c0ed",
        "to": "0xea75da676f9440eaff710d45a1c9f9eaa18ae2ee",
        "gas": "0x931f",
        "value": "0x0",
        "input": "0xf2fde38b000000000000000000000000db779a06f0430de0e8a9bd64de3448db8cccb4fe",
        "nonce": "0xb5",
        "chainId": "0x66eee"
      },
      "additionalContracts": [],
      "isFixedGasLimit": false
    },
    {
      "hash": null,
      "transactionType": "CALL",
      "contractName": null,
      "contractAddress": "0x027eef9dd7149f33a120df36e39beea074bf60a6",
      "function": "transferOwnership(address)",
      "arguments": [
        "0xDb779a06F0430DE0e8a9Bd64dE3448Db8cccb4FE"
      ],
      "transaction": {
        "from": "0x8affbdec195700db11465733146c708af538c0ed",
        "to": "0x027eef9dd7149f33a120df36e39beea074bf60a6",
        "gas": "0x931f",
        "value": "0x0",
        "input": "0xf2fde38b000000000000000000000000db779a06f0430de0e8a9bd64de3448db8cccb4fe",
        "nonce": "0xb6",
        "chainId": "0x66eee"
      },
      "additionalContracts": [],
      "isFixedGasLimit": false
    },
    {
      "hash": null,
      "transactionType": "CALL",
      "contractName": null,
      "contractAddress": "0x1529af7050c60c6958b09d2cc25d840e8a493e33",
      "function": "transferOwnership(address)",
      "arguments": [
        "0xDb779a06F0430DE0e8a9Bd64dE3448Db8cccb4FE"
      ],
      "transaction": {
        "from": "0x8affbdec195700db11465733146c708af538c0ed",
        "to": "0x1529af7050c60c6958b09d2cc25d840e8a493e33",
        "gas": "0x931f",
        "value": "0x0",
        "input": "0xf2fde38b000000000000000000000000db779a06f0430de0e8a9bd64de3448db8cccb4fe",
        "nonce": "0xb7",
        "chainId": "0x66eee"
      },
      "additionalContracts": [],
      "isFixedGasLimit": false
    },
    {
      "hash": null,
      "transactionType": "CALL",
      "contractName": null,
      "contractAddress": "0x0657000a959eed2d8f19930f07ddffa41caddf15",
      "function": "transferOwnership(address)",
      "arguments": [
        "0xDb779a06F0430DE0e8a9Bd64dE3448Db8cccb4FE"
      ],
      "transaction": {
        "from": "0x8affbdec195700db11465733146c708af538c0ed",
        "to": "0x0657000a959eed2d8f19930f07ddffa41caddf15",
        "gas": "0x931f",
        "value": "0x0",
        "input": "0xf2fde38b000000000000000000000000db779a06f0430de0e8a9bd64de3448db8cccb4fe",
        "nonce": "0xb8",
        "chainId": "0x66eee"
      },
      "additionalContracts": [],
      "isFixedGasLimit": false
    }
  ],
  "receipts": [],
  "libraries": [],
  "pending": [],
  "returns": {},
  "timestamp": 1744379797,
  "chain": 421614,
  "commit": "3f2c649"
}